{
  "contractName": "Product",
  "abi": [
    {
      "inputs": [],
      "stateMutability": "nonpayable",
      "type": "constructor"
    },
    {
      "anonymous": false,
      "inputs": [
        {
          "indexed": true,
          "internalType": "address",
          "name": "previousOwner",
          "type": "address"
        },
        {
          "indexed": true,
          "internalType": "address",
          "name": "newOwner",
          "type": "address"
        }
      ],
      "name": "OwnershipTransferred",
      "type": "event"
    },
    {
      "anonymous": false,
      "inputs": [
        {
          "indexed": true,
          "internalType": "uint256",
          "name": "_productSubmissionId",
          "type": "uint256"
        }
      ],
      "name": "registeredProductEvent",
      "type": "event"
    },
    {
      "inputs": [],
      "name": "owner",
      "outputs": [
        {
          "internalType": "address",
          "name": "",
          "type": "address"
        }
      ],
      "stateMutability": "view",
      "type": "function"
    },
    {
      "inputs": [
        {
          "internalType": "uint256",
          "name": "",
          "type": "uint256"
        }
      ],
      "name": "productHashes",
      "outputs": [
        {
          "internalType": "string",
          "name": "",
          "type": "string"
        }
      ],
      "stateMutability": "view",
      "type": "function"
    },
    {
      "inputs": [
        {
          "internalType": "string",
          "name": "",
          "type": "string"
        }
      ],
      "name": "productsAddressMap",
      "outputs": [
        {
          "internalType": "address",
          "name": "",
          "type": "address"
        }
      ],
      "stateMutability": "view",
      "type": "function"
    },
    {
      "inputs": [
        {
          "internalType": "string",
          "name": "",
          "type": "string"
        }
      ],
      "name": "productsMap",
      "outputs": [
        {
          "internalType": "string",
          "name": "ProductHash",
          "type": "string"
        },
        {
          "internalType": "string",
          "name": "ProductInfo",
          "type": "string"
        },
        {
          "internalType": "string",
          "name": "SupplierDetails",
          "type": "string"
        },
        {
          "internalType": "string",
          "name": "SubmissionDate",
          "type": "string"
        },
        {
          "internalType": "uint256",
          "name": "BlockNumber",
          "type": "uint256"
        },
        {
          "internalType": "uint256",
          "name": "isSet",
          "type": "uint256"
        }
      ],
      "stateMutability": "view",
      "type": "function"
    },
    {
      "inputs": [],
      "name": "renounceOwnership",
      "outputs": [],
      "stateMutability": "nonpayable",
      "type": "function"
    },
    {
      "inputs": [
        {
          "internalType": "address",
          "name": "newOwner",
          "type": "address"
        }
      ],
      "name": "transferOwnership",
      "outputs": [],
      "stateMutability": "nonpayable",
      "type": "function"
    },
    {
      "inputs": [
        {
          "internalType": "uint256",
          "name": "_orderAmt",
          "type": "uint256"
        }
      ],
      "name": "setOrderAmt",
      "outputs": [],
      "stateMutability": "nonpayable",
      "type": "function"
    },
    {
      "inputs": [
        {
          "internalType": "bytes32[50]",
          "name": "_msg",
          "type": "bytes32[50]"
        }
      ],
      "name": "setOrderDetails",
      "outputs": [],
      "stateMutability": "nonpayable",
      "type": "function"
    },
    {
      "inputs": [],
      "name": "toggleContractActive",
      "outputs": [
        {
          "internalType": "bool",
          "name": "",
          "type": "bool"
        }
      ],
      "stateMutability": "nonpayable",
      "type": "function"
    },
    {
      "inputs": [
        {
          "internalType": "string",
          "name": "ProductHash",
          "type": "string"
        }
      ],
      "name": "registerProductSubmission",
      "outputs": [
        {
          "internalType": "uint256",
          "name": "",
          "type": "uint256"
        }
      ],
      "stateMutability": "view",
      "type": "function"
    },
    {
      "inputs": [
        {
          "internalType": "string",
          "name": "hash",
          "type": "string"
        }
      ],
      "name": "checkProductSubmission",
      "outputs": [
        {
          "internalType": "bool",
          "name": "",
          "type": "bool"
        }
      ],
      "stateMutability": "view",
      "type": "function"
    },
    {
      "inputs": [],
      "name": "checkContractIsRunning",
      "outputs": [
        {
          "internalType": "bool",
          "name": "",
          "type": "bool"
        }
      ],
      "stateMutability": "view",
      "type": "function"
    },
    {
      "inputs": [],
      "name": "destroy",
      "outputs": [],
      "stateMutability": "nonpayable",
      "type": "function"
    },
    {
      "inputs": [
        {
          "internalType": "bool",
          "name": "_orderCompletion",
          "type": "bool"
        }
      ],
      "name": "setOrderCompletion",
      "outputs": [],
      "stateMutability": "nonpayable",
      "type": "function"
    },
    {
      "inputs": [
        {
          "internalType": "address",
          "name": "_buyer",
          "type": "address"
        }
      ],
      "name": "setBuyer",
      "outputs": [],
      "stateMutability": "nonpayable",
      "type": "function"
    },
    {
      "inputs": [],
      "name": "getBuyer",
      "outputs": [
        {
          "internalType": "address",
          "name": "",
          "type": "address"
        }
      ],
      "stateMutability": "view",
      "type": "function"
    },
    {
      "inputs": [],
      "name": "getSeller",
      "outputs": [
        {
          "internalType": "address",
          "name": "",
          "type": "address"
        }
      ],
      "stateMutability": "view",
      "type": "function"
    },
    {
      "inputs": [],
      "name": "getSuppliers",
      "outputs": [
        {
          "internalType": "address[]",
          "name": "",
          "type": "address[]"
        }
      ],
      "stateMutability": "view",
      "type": "function"
    },
    {
      "inputs": [],
      "name": "getDeliveryDate",
      "outputs": [
        {
          "internalType": "bytes32",
          "name": "",
          "type": "bytes32"
        }
      ],
      "stateMutability": "view",
      "type": "function"
    },
    {
      "inputs": [],
      "name": "getPaymentDate",
      "outputs": [
        {
          "internalType": "bytes32",
          "name": "",
          "type": "bytes32"
        }
      ],
      "stateMutability": "view",
      "type": "function"
    },
    {
      "inputs": [],
      "name": "getOrderAmt",
      "outputs": [
        {
          "internalType": "uint256",
          "name": "",
          "type": "uint256"
        }
      ],
      "stateMutability": "view",
      "type": "function"
    },
    {
      "inputs": [],
      "name": "getOrderDetails",
      "outputs": [
        {
          "internalType": "bytes32[50]",
          "name": "",
          "type": "bytes32[50]"
        }
      ],
      "stateMutability": "view",
      "type": "function"
    },
    {
      "inputs": [],
      "name": "getApprovalSeller",
      "outputs": [
        {
          "internalType": "bool",
          "name": "",
          "type": "bool"
        }
      ],
      "stateMutability": "view",
      "type": "function"
    },
    {
      "inputs": [],
      "name": "getBuyerApproval",
      "outputs": [
        {
          "internalType": "bool",
          "name": "",
          "type": "bool"
        }
      ],
      "stateMutability": "view",
      "type": "function"
    },
    {
      "inputs": [
        {
          "internalType": "address",
          "name": "_seller",
          "type": "address"
        }
      ],
      "name": "setSeller",
      "outputs": [],
      "stateMutability": "nonpayable",
      "type": "function"
    },
    {
      "inputs": [
        {
          "internalType": "bool",
          "name": "_approvalSeller",
          "type": "bool"
        }
      ],
      "name": "setApprovalSeller",
      "outputs": [],
      "stateMutability": "nonpayable",
      "type": "function"
    },
    {
      "inputs": [
        {
          "internalType": "bool",
          "name": "_approvalBuyer",
          "type": "bool"
        }
      ],
      "name": "setApprovalBuyer",
      "outputs": [],
      "stateMutability": "nonpayable",
      "type": "function"
    }
  ],
  "bytecode": "0x608060405234801561001057600080fd5b50600061002161010560201b60201c565b9050806000806101000a81548173ffffffffffffffffffffffffffffffffffffffff021916908373ffffffffffffffffffffffffffffffffffffffff1602179055508073ffffffffffffffffffffffffffffffffffffffff16600073ffffffffffffffffffffffffffffffffffffffff167f8be0079c531659141344cd1fd0a4f28419497f9722a3daafe3b4186f6b6457e060405160405180910390a35033600160006101000a81548173ffffffffffffffffffffffffffffffffffffffff021916908373ffffffffffffffffffffffffffffffffffffffff16021790555061010d565b600033905090565b612a618061011c6000396000f3fe608060405234801561001057600080fd5b50600436106101a95760003560e01c806395f2d584116100f9578063b4233e9f11610097578063e99d286611610071578063e99d286614610462578063f2fde38b1461047e578063f58e2eab1461049a578063f63f9564146104ca576101a9565b8063b4233e9f14610408578063dbd0e1b614610426578063dfab317a14610444576101a9565b8063a62a4c85116100d3578063a62a4c8514610380578063a81fe6ba1461039e578063ad7cf430146103bc578063b0710841146103ec576101a9565b806395f2d584146103045780639b3f5e1c14610334578063a3f09ad614610364576101a9565b806347c9563411610166578063715018a611610140578063715018a6146102b657806383197ef0146102c05780638da5cb5b146102ca578063900089ec146102e8576101a9565b806347c9563414610260578063603daf9a1461027c578063701135011461029a576101a9565b806303126c9a146101ae5780631385d24c146101ca5780631ac84b22146101e85780632e19ce5b146102065780633fad16a6146102245780634351683214610242575b600080fd5b6101c860048036036101c39190810190611e5e565b6104ff565b005b6101d2610699565b6040516101df9190612539565b60405180910390f35b6101f0610770565b6040516101fd9190612539565b60405180910390f35b61020e610787565b60405161021b9190612554565b60405180910390f35b61022c6107dd565b6040516102399190612539565b60405180910390f35b61024a6107f4565b60405161025791906124fb565b60405180910390f35b61027a60048036036102759190810190611e34565b610977565b005b61028461098c565b60405161029191906124e0565b60405180910390f35b6102b460048036036102af9190810190611f32565b610a4a565b005b6102be610a9b565b005b6102c8610bf0565b005b6102d2610d10565b6040516102df91906124e0565b60405180910390f35b61030260048036036102fd9190810190611e5e565b610d39565b005b61031e60048036036103199190810190611ef1565b610e04565b60405161032b91906127d0565b60405180910390f35b61034e60048036036103499190810190611eb0565b610f37565b60405161035b91906124e0565b60405180910390f35b61037e60048036036103799190810190611e0b565b610f80565b005b610388611143565b60405161039591906127d0565b60405180910390f35b6103a661114d565b6040516103b39190612539565b60405180910390f35b6103d660048036036103d19190810190611ef1565b611164565b6040516103e39190612539565b60405180910390f35b61040660048036036104019190810190611e5e565b6111fa565b005b610410611360565b60405161041d919061251d565b60405180910390f35b61042e6113f0565b60405161043b91906124e0565b60405180910390f35b61044c6114ae565b6040516104599190612554565b60405180910390f35b61047c60048036036104779190810190611e0b565b611504565b005b61049860048036036104939190810190611e0b565b6116c7565b005b6104b460048036036104af9190810190611f32565b61188b565b6040516104c1919061256f565b60405180910390f35b6104e460048036036104df9190810190611eb0565b611944565b6040516104f6969594939291906125b3565b60405180910390f35b6007546000602060ff16141561054a576040517f08c379a000000000000000000000000000000000000000000000000000000000815260040161054190612790565b60405180910390fd5b6008546000602060ff161415610595576040517f08c379a000000000000000000000000000000000000000000000000000000000815260040161058c90612790565b60405180910390fd5b6000603214156105da576040517f08c379a00000000000000000000000000000000000000000000000000000000081526004016105d190612670565b60405180910390fd5b603c60009054906101000a900460ff166000151581151514610631576040517f08c379a000000000000000000000000000000000000000000000000000000000815260040161062890612690565b60405180910390fd5b6009546000811415610678576040517f08c379a000000000000000000000000000000000000000000000000000000000815260040161066f90612770565b60405180910390fd5b84603c60006101000a81548160ff0219169083151502179055505050505050565b60006106a3611bf6565b73ffffffffffffffffffffffffffffffffffffffff166000809054906101000a900473ffffffffffffffffffffffffffffffffffffffff1673ffffffffffffffffffffffffffffffffffffffff1614610731576040517f08c379a000000000000000000000000000000000000000000000000000000000815260040161072890612750565b60405180910390fd5b600160149054906101000a900460ff1615600160146101000a81548160ff021916908315150217905550600160149054906101000a900460ff16905090565b6000603c60009054906101000a900460ff16905090565b60006008546000602060ff1614156107d4576040517f08c379a00000000000000000000000000000000000000000000000000000000081526004016107cb90612790565b60405180910390fd5b60085491505090565b6000603c60019054906101000a900460ff16905090565b60606000600680549050141561083f576040517f08c379a000000000000000000000000000000000000000000000000000000000815260040161083690612790565b60405180910390fd5b60011515603c60009054906101000a900460ff16151514610895576040517f08c379a000000000000000000000000000000000000000000000000000000000815260040161088c90612650565b60405180910390fd5b60011515603c60009054906101000a900460ff161515146108eb576040517f08c379a00000000000000000000000000000000000000000000000000000000081526004016108e290612650565b60405180910390fd5b600680548060200260200160405190810160405280929190818152602001828054801561096d57602002820191906000526020600020905b8160009054906101000a900473ffffffffffffffffffffffffffffffffffffffff1673ffffffffffffffffffffffffffffffffffffffff1681526020019060010190808311610923575b5050505050905090565b80600a906032610988929190611bfe565b5050565b6000600360009054906101000a900473ffffffffffffffffffffffffffffffffffffffff16600073ffffffffffffffffffffffffffffffffffffffff168173ffffffffffffffffffffffffffffffffffffffff161415610a21576040517f08c379a0000000000000000000000000000000000000000000000000000000008152600401610a18906127b0565b60405180910390fd5b600360009054906101000a900473ffffffffffffffffffffffffffffffffffffffff1691505090565b60095460008114610a90576040517f08c379a0000000000000000000000000000000000000000000000000000000008152600401610a8790612710565b60405180910390fd5b816009819055505050565b610aa3611bf6565b73ffffffffffffffffffffffffffffffffffffffff166000809054906101000a900473ffffffffffffffffffffffffffffffffffffffff1673ffffffffffffffffffffffffffffffffffffffff1614610b31576040517f08c379a0000000000000000000000000000000000000000000000000000000008152600401610b2890612750565b60405180910390fd5b600073ffffffffffffffffffffffffffffffffffffffff166000809054906101000a900473ffffffffffffffffffffffffffffffffffffffff1673ffffffffffffffffffffffffffffffffffffffff167f8be0079c531659141344cd1fd0a4f28419497f9722a3daafe3b4186f6b6457e060405160405180910390a360008060006101000a81548173ffffffffffffffffffffffffffffffffffffffff021916908373ffffffffffffffffffffffffffffffffffffffff160217905550565b610bf8611bf6565b73ffffffffffffffffffffffffffffffffffffffff166000809054906101000a900473ffffffffffffffffffffffffffffffffffffffff1673ffffffffffffffffffffffffffffffffffffffff1614610c86576040517f08c379a0000000000000000000000000000000000000000000000000000000008152600401610c7d90612750565b60405180910390fd5b600160149054906101000a900460ff16610cd5576040517f08c379a0000000000000000000000000000000000000000000000000000000008152600401610ccc90612730565b60405180910390fd5b600160009054906101000a900473ffffffffffffffffffffffffffffffffffffffff1673ffffffffffffffffffffffffffffffffffffffff16ff5b60008060009054906101000a900473ffffffffffffffffffffffffffffffffffffffff16905090565b60011515603c60009054906101000a900460ff16151514610d8f576040517f08c379a0000000000000000000000000000000000000000000000000000000008152600401610d8690612650565b60405180910390fd5b603c60019054906101000a900460ff166000151581151514610de6576040517f08c379a0000000000000000000000000000000000000000000000000000000008152600401610ddd90612690565b60405180910390fd5b81603c60016101000a81548160ff0219169083151502179055505050565b6000600160149054906101000a900460ff1615610e56576040517f08c379a0000000000000000000000000000000000000000000000000000000008152600401610e4d90612630565b60405180910390fd5b600015153073ffffffffffffffffffffffffffffffffffffffff1663ad7cf430846040518263ffffffff1660e01b8152600401610e939190612591565b60206040518083038186803b158015610eab57600080fd5b505afa158015610ebf573d6000803e3d6000fd5b505050506040513d601f19601f82011682018060405250610ee39190810190611e87565b151514610f25576040517f08c379a0000000000000000000000000000000000000000000000000000000008152600401610f1c906126f0565b60405180910390fd5b60004390506000600190505050919050565b603e818051602081018201805184825260208301602085012081835280955050505050506000915054906101000a900473ffffffffffffffffffffffffffffffffffffffff1681565b600360009054906101000a900473ffffffffffffffffffffffffffffffffffffffff16600073ffffffffffffffffffffffffffffffffffffffff168173ffffffffffffffffffffffffffffffffffffffff1614611012576040517f08c379a000000000000000000000000000000000000000000000000000000000815260040161100990612690565b60405180910390fd5b81600560009054906101000a900473ffffffffffffffffffffffffffffffffffffffff1673ffffffffffffffffffffffffffffffffffffffff1663c3c5a547826040518263ffffffff1660e01b815260040161106e91906124e0565b60206040518083038186803b15801561108657600080fd5b505afa15801561109a573d6000803e3d6000fd5b505050506040513d601f19601f820116820180604052506110be9190810190611e87565b6110fd576040517f08c379a00000000000000000000000000000000000000000000000000000000081526004016110f4906126d0565b60405180910390fd5b82600360006101000a81548173ffffffffffffffffffffffffffffffffffffffff021916908373ffffffffffffffffffffffffffffffffffffffff160217905550505050565b6000600954905090565b6000600160149054906101000a900460ff16905090565b6000600160149054906101000a900460ff16156111b6576040517f08c379a00000000000000000000000000000000000000000000000000000000081526004016111ad90612630565b60405180910390fd5b6000603d836040516111c891906124c9565b908152602001604051809103902060050154905060008111156111ef5760019150506111f5565b60009150505b919050565b60011515603c60009054906101000a900460ff16151514611250576040517f08c379a000000000000000000000000000000000000000000000000000000000815260040161124790612650565b60405180910390fd5b60011515603c60009054906101000a900460ff161515146112a6576040517f08c379a000000000000000000000000000000000000000000000000000000000815260040161129d90612650565b60405180910390fd5b6000603214156112eb576040517f08c379a00000000000000000000000000000000000000000000000000000000081526004016112e290612670565b60405180910390fd5b603c60029054906101000a900460ff166000151581151514611342576040517f08c379a000000000000000000000000000000000000000000000000000000000815260040161133990612690565b60405180910390fd5b81603c60026101000a81548160ff0219169083151502179055505050565b611368611c3e565b6000603214156113ad576040517f08c379a00000000000000000000000000000000000000000000000000000000081526004016113a490612670565b60405180910390fd5b600a6032806020026040519081016040528092919082603280156113e6576020028201915b8154815260200190600101908083116113d2575b5050505050905090565b6000600460009054906101000a900473ffffffffffffffffffffffffffffffffffffffff16600073ffffffffffffffffffffffffffffffffffffffff168173ffffffffffffffffffffffffffffffffffffffff161415611485576040517f08c379a000000000000000000000000000000000000000000000000000000000815260040161147c906127b0565b60405180910390fd5b600460009054906101000a900473ffffffffffffffffffffffffffffffffffffffff1691505090565b60006007546000602060ff1614156114fb576040517f08c379a00000000000000000000000000000000000000000000000000000000081526004016114f290612790565b60405180910390fd5b60075491505090565b600460009054906101000a900473ffffffffffffffffffffffffffffffffffffffff16600073ffffffffffffffffffffffffffffffffffffffff168173ffffffffffffffffffffffffffffffffffffffff1614611596576040517f08c379a000000000000000000000000000000000000000000000000000000000815260040161158d90612690565b60405180910390fd5b81600560009054906101000a900473ffffffffffffffffffffffffffffffffffffffff1673ffffffffffffffffffffffffffffffffffffffff1663c3c5a547826040518263ffffffff1660e01b81526004016115f291906124e0565b60206040518083038186803b15801561160a57600080fd5b505afa15801561161e573d6000803e3d6000fd5b505050506040513d601f19601f820116820180604052506116429190810190611e87565b611681576040517f08c379a0000000000000000000000000000000000000000000000000000000008152600401611678906126d0565b60405180910390fd5b82600460006101000a81548173ffffffffffffffffffffffffffffffffffffffff021916908373ffffffffffffffffffffffffffffffffffffffff160217905550505050565b6116cf611bf6565b73ffffffffffffffffffffffffffffffffffffffff166000809054906101000a900473ffffffffffffffffffffffffffffffffffffffff1673ffffffffffffffffffffffffffffffffffffffff161461175d576040517f08c379a000000000000000000000000000000000000000000000000000000000815260040161175490612750565b60405180910390fd5b600073ffffffffffffffffffffffffffffffffffffffff168173ffffffffffffffffffffffffffffffffffffffff1614156117cd576040517f08c379a00000000000000000000000000000000000000000000000000000000081526004016117c4906126b0565b60405180910390fd5b8073ffffffffffffffffffffffffffffffffffffffff166000809054906101000a900473ffffffffffffffffffffffffffffffffffffffff1673ffffffffffffffffffffffffffffffffffffffff167f8be0079c531659141344cd1fd0a4f28419497f9722a3daafe3b4186f6b6457e060405160405180910390a3806000806101000a81548173ffffffffffffffffffffffffffffffffffffffff021916908373ffffffffffffffffffffffffffffffffffffffff16021790555050565b603f818154811061189857fe5b906000526020600020016000915090508054600181600116156101000203166002900480601f01602080910402602001604051908101604052809291908181526020018280546001816001161561010002031660029004801561193c5780601f106119115761010080835404028352916020019161193c565b820191906000526020600020905b81548152906001019060200180831161191f57829003601f168201915b505050505081565b603d81805160208101820180518482526020830160208501208183528095505050505050600091509050806000018054600181600116156101000203166002900480601f016020809104026020016040519081016040528092919081815260200182805460018160011615610100020316600290048015611a065780601f106119db57610100808354040283529160200191611a06565b820191906000526020600020905b8154815290600101906020018083116119e957829003601f168201915b505050505090806001018054600181600116156101000203166002900480601f016020809104026020016040519081016040528092919081815260200182805460018160011615610100020316600290048015611aa45780601f10611a7957610100808354040283529160200191611aa4565b820191906000526020600020905b815481529060010190602001808311611a8757829003601f168201915b505050505090806002018054600181600116156101000203166002900480601f016020809104026020016040519081016040528092919081815260200182805460018160011615610100020316600290048015611b425780601f10611b1757610100808354040283529160200191611b42565b820191906000526020600020905b815481529060010190602001808311611b2557829003601f168201915b505050505090806003018054600181600116156101000203166002900480601f016020809104026020016040519081016040528092919081815260200182805460018160011615610100020316600290048015611be05780601f10611bb557610100808354040283529160200191611be0565b820191906000526020600020905b815481529060010190602001808311611bc357829003601f168201915b5050505050908060040154908060050154905086565b600033905090565b8260328101928215611c2d579160200282015b82811115611c2c578251825591602001919060010190611c11565b5b509050611c3a9190611c61565b5090565b604051806106400160405280603290602082028038833980820191505090505090565b611c8391905b80821115611c7f576000816000905550600101611c67565b5090565b90565b600081359050611c95816129cf565b92915050565b600082601f830112611cac57600080fd5b6032611cbf611cba82612818565b6127eb565b91508183856020840282011115611cd557600080fd5b60005b83811015611d055781611ceb8882611d39565b845260208401935060208301925050600181019050611cd8565b5050505092915050565b600081359050611d1e816129e6565b92915050565b600081519050611d33816129e6565b92915050565b600081359050611d48816129fd565b92915050565b600082601f830112611d5f57600080fd5b8135611d72611d6d8261283a565b6127eb565b91508082526020830160208301858383011115611d8e57600080fd5b611d9983828461297c565b50505092915050565b600082601f830112611db357600080fd5b8135611dc6611dc182612866565b6127eb565b91508082526020830160208301858383011115611de257600080fd5b611ded83828461297c565b50505092915050565b600081359050611e0581612a14565b92915050565b600060208284031215611e1d57600080fd5b6000611e2b84828501611c86565b91505092915050565b60006106408284031215611e4757600080fd5b6000611e5584828501611c9b565b91505092915050565b600060208284031215611e7057600080fd5b6000611e7e84828501611d0f565b91505092915050565b600060208284031215611e9957600080fd5b6000611ea784828501611d24565b91505092915050565b600060208284031215611ec257600080fd5b600082013567ffffffffffffffff811115611edc57600080fd5b611ee884828501611d4e565b91505092915050565b600060208284031215611f0357600080fd5b600082013567ffffffffffffffff811115611f1d57600080fd5b611f2984828501611da2565b91505092915050565b600060208284031215611f4457600080fd5b6000611f5284828501611df6565b91505092915050565b6000611f678383611f8b565b60208301905092915050565b6000611f7f838361206d565b60208301905092915050565b611f948161292a565b82525050565b611fa38161292a565b82525050565b6000611fb4826128ac565b611fbe81856128f2565b9350611fc983612892565b8060005b83811015611ffa578151611fe18882611f5b565b9750611fec836128d8565b925050600181019050611fcd565b5085935050505092915050565b612010816128b7565b61201a8184612903565b9250612025826128a2565b8060005b8381101561205657815161203d8782611f73565b9650612048836128e5565b925050600181019050612029565b505050505050565b6120678161293c565b82525050565b61207681612948565b82525050565b61208581612948565b82525050565b6000612096826128cd565b6120a0818561290e565b93506120b081856020860161298b565b6120b9816129be565b840191505092915050565b60006120cf826128cd565b6120d9818561291f565b93506120e981856020860161298b565b80840191505092915050565b6000612100826128c2565b61210a818561290e565b935061211a81856020860161298b565b612123816129be565b840191505092915050565b600061213b601e8361290e565b91507f436f6e74726163742069732063757272656e746c792073746f707065642e00006000830152602082019050919050565b600061217b60148361290e565b91507f53656c6c6572206861736e2774206167726565640000000000000000000000006000830152602082019050919050565b60006121bb60158361290e565b91507f4f726465722044657461696c73206e6f742073657400000000000000000000006000830152602082019050919050565b60006121fb60118361290e565b91507f56616c756520616c7265616479207365740000000000000000000000000000006000830152602082019050919050565b600061223b60268361290e565b91507f4f776e61626c653a206e6577206f776e657220697320746865207a65726f206160008301527f64647265737300000000000000000000000000000000000000000000000000006020830152604082019050919050565b60006122a1600d8361290e565b91507f4163636573732044656e696564000000000000000000000000000000000000006000830152602082019050919050565b60006122e160208361290e565b91507f4572726f723a2050726f6475637420616c72656164792075706c6f616465642e6000830152602082019050919050565b6000612321601a8361290e565b91507f56616c75652068617320616c7265616479206265656e207365740000000000006000830152602082019050919050565b600061236160228361290e565b91507f436f6e7472616374206973206e6f742063757272656e746c792073746f70706560008301527f642e0000000000000000000000000000000000000000000000000000000000006020830152604082019050919050565b60006123c760208361290e565b91507f4f776e61626c653a2063616c6c6572206973206e6f7420746865206f776e65726000830152602082019050919050565b6000612407600d8361290e565b91507f56616c7565206e6f7420736574000000000000000000000000000000000000006000830152602082019050919050565b600061244760168361290e565b91507f546865726520617265206e6f20737570706c69657273000000000000000000006000830152602082019050919050565b600061248760118361290e565b91507f56616c7565206e6f7420796574207365740000000000000000000000000000006000830152602082019050919050565b6124c381612972565b82525050565b60006124d582846120c4565b915081905092915050565b60006020820190506124f56000830184611f9a565b92915050565b600060208201905081810360008301526125158184611fa9565b905092915050565b6000610640820190506125336000830184612007565b92915050565b600060208201905061254e600083018461205e565b92915050565b6000602082019050612569600083018461207c565b92915050565b6000602082019050818103600083015261258981846120f5565b905092915050565b600060208201905081810360008301526125ab818461208b565b905092915050565b600060c08201905081810360008301526125cd81896120f5565b905081810360208301526125e181886120f5565b905081810360408301526125f581876120f5565b9050818103606083015261260981866120f5565b905061261860808301856124ba565b61262560a08301846124ba565b979650505050505050565b600060208201905081810360008301526126498161212e565b9050919050565b600060208201905081810360008301526126698161216e565b9050919050565b60006020820190508181036000830152612689816121ae565b9050919050565b600060208201905081810360008301526126a9816121ee565b9050919050565b600060208201905081810360008301526126c98161222e565b9050919050565b600060208201905081810360008301526126e981612294565b9050919050565b60006020820190508181036000830152612709816122d4565b9050919050565b6000602082019050818103600083015261272981612314565b9050919050565b6000602082019050818103600083015261274981612354565b9050919050565b60006020820190508181036000830152612769816123ba565b9050919050565b60006020820190508181036000830152612789816123fa565b9050919050565b600060208201905081810360008301526127a98161243a565b9050919050565b600060208201905081810360008301526127c98161247a565b9050919050565b60006020820190506127e560008301846124ba565b92915050565b6000604051905081810181811067ffffffffffffffff8211171561280e57600080fd5b8060405250919050565b600067ffffffffffffffff82111561282f57600080fd5b602082029050919050565b600067ffffffffffffffff82111561285157600080fd5b601f19601f8301169050602081019050919050565b600067ffffffffffffffff82111561287d57600080fd5b601f19601f8301169050602081019050919050565b6000819050602082019050919050565b6000819050919050565b600081519050919050565b600060329050919050565b600081519050919050565b600081519050919050565b6000602082019050919050565b6000602082019050919050565b600082825260208201905092915050565b600081905092915050565b600082825260208201905092915050565b600081905092915050565b600061293582612952565b9050919050565b60008115159050919050565b6000819050919050565b600073ffffffffffffffffffffffffffffffffffffffff82169050919050565b6000819050919050565b82818337600083830152505050565b60005b838110156129a957808201518184015260208101905061298e565b838111156129b8576000848401525b50505050565b6000601f19601f8301169050919050565b6129d88161292a565b81146129e357600080fd5b50565b6129ef8161293c565b81146129fa57600080fd5b50565b612a0681612948565b8114612a1157600080fd5b50565b612a1d81612972565b8114612a2857600080fd5b5056fea26469706673582212209dd74d189ac74042acb1f577632821da1c381102be57ec415958b9d6fac4cf7c64736f6c63430006000033",
  "source": "// SPDX-License-Identifier: MIT\npragma solidity ^0.6.0;\npragma experimental ABIEncoderV2;\n\nimport \"@openzeppelin/contracts/math/SafeMath.sol\";\nimport \"@openzeppelin/contracts/access/Ownable.sol\";\n\nimport \"./Registrations.sol\";\nimport \"./Token/ERC20.sol\";\n\ncontract Product is Ownable{\n\tusing SafeMath for uint; \n\n\taddress payable contractOwner;\n    bool private stopped; // for use in circuit breaker\n\n    bytes32 id;\n    address buyer;\n    address seller;\n    // mapping(address => uint256) supply;\n    Registrations private registrations;\n\n    address[] suppliers;\n\n    bytes32 deliveryDate;\n    bytes32 paymentDate;\n    uint256 orderAmount;\n    bytes32[50] orderDetails;\n\n    bool approvalSeller;\n\n    bool approvalBuyer;\n    bool orderCompletion;\n\n\t/**\n\t * a struct acts as a loose bag of variables\n\t */\n\tstruct ProductSubmission{\n\t\tstring ProductHash;\n\t\tstring ProductInfo;\n\t\tstring SupplierDetails;\n\t\tstring SubmissionDate;\n\t\tuint256 BlockNumber;\n\t\tuint isSet; \n\t}\n\n\t// constructor(bytes32 _id) public {\n\t// \tid = _id;\n\t// }\n\t\n\tmodifier checkUser(address _address) {\n        require(registrations.isRegistered(_address), \"Access Denied\");\n        _;\n    }\n    modifier onlyOnNum(uint256 num) {\n        require(num != 0, \"Value not set\");\n        _;\n    }\n\n    modifier onlyOnSuppliers {\n        require(suppliers.length != 0, \"There are no suppliers\");\n        _;\n    }\n    modifier onSellerTrue() {\n        require(approvalSeller == true, \"Seller hasn't agreed\");\n\n        _;\n    }\n    modifier onBuyerTrue() {\n        require(approvalSeller == true, \"Seller hasn't agreed\");\n\n        _;\n    }\n    modifier onlyOnSetAddress(address check) {\n        require(check != address(0), \"Value not yet set\");\n        _;\n    }\n\n    modifier onlyOnString(bytes32 str) {\n        require(str.length != 0, \"There are no suppliers\");\n        _;\n    }\n    modifier onStringNull(bytes32 str) {\n        require(str.length == 0, \"Value has already been set\");\n        _;\n    }\n    modifier onUserNull(address user) {\n        require(user == address(0), \"Value already set\");\n        _;\n    }\n\n    modifier onBoolNull(bool val) {\n        require(val == false, \"Value already set\");\n        _;\n    }\n    modifier onNumNull(uint256 num) {\n        require(num == 0, \"Value has already been set\");\n        _;\n    }\n\n    modifier checkOrderCompletion(bool _orderCompletion) {\n        require(_orderCompletion == true, \"Order has to be completed\");\n        _;\n    }\n    function setOrderAmt(uint256 _orderAmt) public onNumNull(orderAmount) {\n        orderAmount = _orderAmt;\n    }\n    function setOrderDetails(bytes32[50] memory _msg) public {\n        orderDetails = _msg;\n    }\n\n\t/*\n\tstate variable to store a ProductSubmission struct for each possible product hash\n\t */\n\tmapping(string => ProductSubmission) public productsMap;\n\n\t/*\n\ta state variable to store an address corresponding to each product submission\n\t */\n\tmapping(string => address) public productsAddressMap;\n\n\t/*\n\ta dynamically-sized array containing product hashes\n\t */\n\tstring[] public productHashes;\n\n\t/*\n\t@dev fired on submission of a product\n\t */\n\tevent registeredProductEvent(uint indexed _productSubmissionId);\n\n\t/*\n\t@dev Constructor\n\t */\n\tconstructor() public{\n\t\tcontractOwner = msg.sender;\n\t}\n\n\t /*\n        @dev Circuit breaker switch\n    */\n    function toggleContractActive() onlyOwner public returns (bool) {\n        stopped = !stopped;\n        return stopped;\n    }\n\n    /*\n        @dev Circuit breaker modifier. Throws if contract is stopped.\n    */\n    modifier stopInEmergency() {\n        require(!stopped, \"Contract is currently stopped.\");\n        _;\n    }\n\n    /*\n        @dev Circuit breaker modifier. Throws if contract is not stopped.\n    */\n    modifier onlyInEmergency() {\n        require(stopped, \"Contract is not currently stopped.\");\n        _;\n    }\n\n\tfunction registerProductSubmission(\n\t\tstring memory ProductHash\n\t\t) \n\n\t\tstopInEmergency public view returns(uint){\n\n\t\t\trequire(this.checkProductSubmission(ProductHash) == false, \"Error: Product already uploaded.\");\n\n\t        uint256 SubmissionBlocknumber = block.number;\n\t        uint256 IsSet = 1;\n\t\t}\n\n\tfunction checkProductSubmission(string memory hash) \n\tpublic stopInEmergency view returns (bool) {\n        // check whether the hash is among the list of known hashes\n        uint onChainIsSet = productsMap[hash].isSet;\n        if (onChainIsSet > 0) {\n            // if yes, return true\n            return true;\n          }\n        // otherwise return false\n        return false;\n    }\n    /**\n     * @dev Confirm whether the contract is stopped or not.\n     */\n    function checkContractIsRunning() public view returns (bool) {\n        return stopped;\n    }\n\n\t/*\n\t @dev fallback function. This gets executed if a transaction with invalid data is sent to the contract or\n     *   just ether without data. We revert the send so that no-one accidentally loses money when using the contract.\n\t */\n\n\t// function() external {\n //        revert();\n //    }\n\n    function destroy() public onlyOwner onlyInEmergency {\n        // cast owner which is address to address payable\n        selfdestruct(contractOwner);\n    }\n\n    function setOrderCompletion(bool _orderCompletion)\n        public\n        onSellerTrue\n        onBuyerTrue\n        onlyOnOrderDetails\n        onBoolNull(orderCompletion)\n    {\n        orderCompletion = _orderCompletion;\n    }\n\n    function setBuyer(address _buyer)\n        public\n        onUserNull(buyer)\n        checkUser(_buyer)\n    {\n        buyer = _buyer;\n    }\n\n    function getBuyer() public view onlyOnSetAddress(buyer) returns (address) {\n        return buyer;\n    }\n    function getSeller()\n        public\n        view\n        onlyOnSetAddress(seller)\n        returns (address)\n    {\n        return seller;\n    }\n\n    function getSuppliers()\n        public\n        view\n        onlyOnSuppliers\n        onBuyerTrue\n        onSellerTrue\n        returns (address[] memory)\n    {\n        return suppliers;\n    }\n\n    function getDeliveryDate()\n        public\n        view\n        onlyOnString(deliveryDate)\n        returns (bytes32)\n    {\n        return deliveryDate;\n    }\n\n    function getPaymentDate()\n        public\n        view\n        onlyOnString(paymentDate)\n        returns (bytes32)\n    {\n        return paymentDate;\n    }\n\n    function getOrderAmt() public view returns (uint256) {\n        return orderAmount;\n    }\n    modifier onlyOnOrderDetails() {\n        require(orderDetails.length != 0, \"Order Details not set\");\n        _;\n    }\n    function getOrderDetails()\n        public\n        view\n        onlyOnOrderDetails\n        returns (bytes32[50] memory)\n    {\n        return orderDetails;\n    }\n\n    function getApprovalSeller() public view returns (bool) {\n        return approvalSeller;\n    }\n\n    function getBuyerApproval() public view returns (bool) {\n        return approvalBuyer;\n    }\n\n    function setSeller(address _seller)\n        public\n        onUserNull(seller)\n        checkUser(_seller)\n    {\n        seller = _seller;\n    }\n\n    function setApprovalSeller(bool _approvalSeller)\n        public\n        onlyOnString(deliveryDate)\n        onlyOnString(paymentDate)\n        onlyOnOrderDetails\n        onBoolNull(approvalSeller)\n        onlyOnNum(orderAmount)\n    {\n        approvalSeller = _approvalSeller;\n    }\n\n    function setApprovalBuyer(bool _approvalBuyer)\n        public\n        onSellerTrue\n        onBoolNull(approvalBuyer)\n    {\n        approvalBuyer = _approvalBuyer;\n    }\n}\n\n//TODO -- work on the product (buyer & seller) logistics",
  "sourcePath": "/home/shak/Desktop/stupid/smartcontracts/contracts/Product.sol",
  "compiler": {
    "name": "solc",
    "version": "0.6.0+commit.26b70077.Emscripten.clang"
  },
  "schemaVersion": "3.3.2",
  "updatedAt": "2020-12-15T10:31:23.286Z",
  "devdoc": {
    "methods": {
      "checkContractIsRunning()": {
        "details": "Confirm whether the contract is stopped or not."
      },
      "owner()": {
        "details": "Returns the address of the current owner."
      },
      "renounceOwnership()": {
        "details": "Leaves the contract without owner. It will not be possible to call `onlyOwner` functions anymore. Can only be called by the current owner.     * NOTE: Renouncing ownership will leave the contract without an owner, thereby removing any functionality that is only available to the owner."
      },
      "transferOwnership(address)": {
        "details": "Transfers ownership of the contract to a new account (`newOwner`). Can only be called by the current owner."
      }
    }
  },
  "userdoc": {
    "methods": {}
  }
}