{
  "contractName": "Product",
  "abi": [
    {
      "inputs": [],
      "stateMutability": "nonpayable",
      "type": "constructor"
    },
    {
      "anonymous": false,
      "inputs": [
        {
          "indexed": true,
          "internalType": "address",
          "name": "previousOwner",
          "type": "address"
        },
        {
          "indexed": true,
          "internalType": "address",
          "name": "newOwner",
          "type": "address"
        }
      ],
      "name": "OwnershipTransferred",
      "type": "event"
    },
    {
      "anonymous": false,
      "inputs": [
        {
          "indexed": true,
          "internalType": "uint256",
          "name": "_productSubmissionId",
          "type": "uint256"
        }
      ],
      "name": "registeredProductEvent",
      "type": "event"
    },
    {
      "inputs": [],
      "name": "owner",
      "outputs": [
        {
          "internalType": "address",
          "name": "",
          "type": "address"
        }
      ],
      "stateMutability": "view",
      "type": "function"
    },
    {
      "inputs": [
        {
          "internalType": "uint256",
          "name": "",
          "type": "uint256"
        }
      ],
      "name": "productHashes",
      "outputs": [
        {
          "internalType": "string",
          "name": "",
          "type": "string"
        }
      ],
      "stateMutability": "view",
      "type": "function"
    },
    {
      "inputs": [
        {
          "internalType": "string",
          "name": "",
          "type": "string"
        }
      ],
      "name": "productsAddressMap",
      "outputs": [
        {
          "internalType": "address",
          "name": "",
          "type": "address"
        }
      ],
      "stateMutability": "view",
      "type": "function"
    },
    {
      "inputs": [
        {
          "internalType": "string",
          "name": "",
          "type": "string"
        }
      ],
      "name": "productsMap",
      "outputs": [
        {
          "internalType": "string",
          "name": "ProductHash",
          "type": "string"
        },
        {
          "internalType": "string",
          "name": "ProductInfo",
          "type": "string"
        },
        {
          "internalType": "string",
          "name": "SupplierDetails",
          "type": "string"
        },
        {
          "internalType": "string",
          "name": "SubmissionDate",
          "type": "string"
        },
        {
          "internalType": "uint256",
          "name": "BlockNumber",
          "type": "uint256"
        },
        {
          "internalType": "uint256",
          "name": "isSet",
          "type": "uint256"
        }
      ],
      "stateMutability": "view",
      "type": "function"
    },
    {
      "inputs": [],
      "name": "renounceOwnership",
      "outputs": [],
      "stateMutability": "nonpayable",
      "type": "function"
    },
    {
      "inputs": [
        {
          "internalType": "address",
          "name": "newOwner",
          "type": "address"
        }
      ],
      "name": "transferOwnership",
      "outputs": [],
      "stateMutability": "nonpayable",
      "type": "function"
    },
    {
      "inputs": [],
      "name": "toggleContractActive",
      "outputs": [
        {
          "internalType": "bool",
          "name": "",
          "type": "bool"
        }
      ],
      "stateMutability": "nonpayable",
      "type": "function"
    },
    {
      "inputs": [
        {
          "internalType": "string",
          "name": "ProductHash",
          "type": "string"
        }
      ],
      "name": "registerProductSubmission",
      "outputs": [
        {
          "internalType": "uint256",
          "name": "",
          "type": "uint256"
        }
      ],
      "stateMutability": "view",
      "type": "function"
    },
    {
      "inputs": [
        {
          "internalType": "string",
          "name": "hash",
          "type": "string"
        }
      ],
      "name": "checkProductSubmission",
      "outputs": [
        {
          "internalType": "bool",
          "name": "",
          "type": "bool"
        }
      ],
      "stateMutability": "view",
      "type": "function"
    },
    {
      "inputs": [],
      "name": "checkContractIsRunning",
      "outputs": [
        {
          "internalType": "bool",
          "name": "",
          "type": "bool"
        }
      ],
      "stateMutability": "view",
      "type": "function"
    },
    {
      "inputs": [],
      "name": "destroy",
      "outputs": [],
      "stateMutability": "nonpayable",
      "type": "function"
    }
  ],
  "bytecode": "0x608060405234801561001057600080fd5b50600061002161010560201b60201c565b9050806000806101000a81548173ffffffffffffffffffffffffffffffffffffffff021916908373ffffffffffffffffffffffffffffffffffffffff1602179055508073ffffffffffffffffffffffffffffffffffffffff16600073ffffffffffffffffffffffffffffffffffffffff167f8be0079c531659141344cd1fd0a4f28419497f9722a3daafe3b4186f6b6457e060405160405180910390a35033600160006101000a81548173ffffffffffffffffffffffffffffffffffffffff021916908373ffffffffffffffffffffffffffffffffffffffff16021790555061010d565b600033905090565b6114d88061011c6000396000f3fe608060405234801561001057600080fd5b50600436106100a95760003560e01c80639b3f5e1c116100715780639b3f5e1c1461012e578063a81fe6ba1461015e578063ad7cf4301461017c578063f2fde38b146101ac578063f58e2eab146101c8578063f63f9564146101f8576100a9565b80631385d24c146100ae578063715018a6146100cc57806383197ef0146100d65780638da5cb5b146100e057806395f2d584146100fe575b600080fd5b6100b661022d565b6040516100c39190611174565b60405180910390f35b6100d4610304565b005b6100de610459565b005b6100e8610579565b6040516100f59190611159565b60405180910390f35b61011860048036036101139190810190610e7c565b6105a2565b60405161012591906112f0565b60405180910390f35b61014860048036036101439190810190610e3b565b6106d5565b6040516101559190611159565b60405180910390f35b61016661071e565b6040516101739190611174565b60405180910390f35b61019660048036036101919190810190610e7c565b610735565b6040516101a39190611174565b60405180910390f35b6101c660048036036101c19190810190610de9565b6107cb565b005b6101e260048036036101dd9190810190610ebd565b61098f565b6040516101ef919061118f565b60405180910390f35b610212600480360361020d9190810190610e3b565b610a48565b604051610224969594939291906111d3565b60405180910390f35b6000610237610cfa565b73ffffffffffffffffffffffffffffffffffffffff166000809054906101000a900473ffffffffffffffffffffffffffffffffffffffff1673ffffffffffffffffffffffffffffffffffffffff16146102c5576040517f08c379a00000000000000000000000000000000000000000000000000000000081526004016102bc906112d0565b60405180910390fd5b600160149054906101000a900460ff1615600160146101000a81548160ff021916908315150217905550600160149054906101000a900460ff16905090565b61030c610cfa565b73ffffffffffffffffffffffffffffffffffffffff166000809054906101000a900473ffffffffffffffffffffffffffffffffffffffff1673ffffffffffffffffffffffffffffffffffffffff161461039a576040517f08c379a0000000000000000000000000000000000000000000000000000000008152600401610391906112d0565b60405180910390fd5b600073ffffffffffffffffffffffffffffffffffffffff166000809054906101000a900473ffffffffffffffffffffffffffffffffffffffff1673ffffffffffffffffffffffffffffffffffffffff167f8be0079c531659141344cd1fd0a4f28419497f9722a3daafe3b4186f6b6457e060405160405180910390a360008060006101000a81548173ffffffffffffffffffffffffffffffffffffffff021916908373ffffffffffffffffffffffffffffffffffffffff160217905550565b610461610cfa565b73ffffffffffffffffffffffffffffffffffffffff166000809054906101000a900473ffffffffffffffffffffffffffffffffffffffff1673ffffffffffffffffffffffffffffffffffffffff16146104ef576040517f08c379a00000000000000000000000000000000000000000000000000000000081526004016104e6906112d0565b60405180910390fd5b600160149054906101000a900460ff1661053e576040517f08c379a0000000000000000000000000000000000000000000000000000000008152600401610535906112b0565b60405180910390fd5b600160009054906101000a900473ffffffffffffffffffffffffffffffffffffffff1673ffffffffffffffffffffffffffffffffffffffff16ff5b60008060009054906101000a900473ffffffffffffffffffffffffffffffffffffffff16905090565b6000600160149054906101000a900460ff16156105f4576040517f08c379a00000000000000000000000000000000000000000000000000000000081526004016105eb90611250565b60405180910390fd5b600015153073ffffffffffffffffffffffffffffffffffffffff1663ad7cf430846040518263ffffffff1660e01b815260040161063191906111b1565b60206040518083038186803b15801561064957600080fd5b505afa15801561065d573d6000803e3d6000fd5b505050506040513d601f19601f820116820180604052506106819190810190610e12565b1515146106c3576040517f08c379a00000000000000000000000000000000000000000000000000000000081526004016106ba90611290565b60405180910390fd5b60004390506000600190505050919050565b6003818051602081018201805184825260208301602085012081835280955050505050506000915054906101000a900473ffffffffffffffffffffffffffffffffffffffff1681565b6000600160149054906101000a900460ff16905090565b6000600160149054906101000a900460ff1615610787576040517f08c379a000000000000000000000000000000000000000000000000000000000815260040161077e90611250565b60405180910390fd5b60006002836040516107999190611142565b908152602001604051809103902060050154905060008111156107c05760019150506107c6565b60009150505b919050565b6107d3610cfa565b73ffffffffffffffffffffffffffffffffffffffff166000809054906101000a900473ffffffffffffffffffffffffffffffffffffffff1673ffffffffffffffffffffffffffffffffffffffff1614610861576040517f08c379a0000000000000000000000000000000000000000000000000000000008152600401610858906112d0565b60405180910390fd5b600073ffffffffffffffffffffffffffffffffffffffff168173ffffffffffffffffffffffffffffffffffffffff1614156108d1576040517f08c379a00000000000000000000000000000000000000000000000000000000081526004016108c890611270565b60405180910390fd5b8073ffffffffffffffffffffffffffffffffffffffff166000809054906101000a900473ffffffffffffffffffffffffffffffffffffffff1673ffffffffffffffffffffffffffffffffffffffff167f8be0079c531659141344cd1fd0a4f28419497f9722a3daafe3b4186f6b6457e060405160405180910390a3806000806101000a81548173ffffffffffffffffffffffffffffffffffffffff021916908373ffffffffffffffffffffffffffffffffffffffff16021790555050565b6004818154811061099c57fe5b906000526020600020016000915090508054600181600116156101000203166002900480601f016020809104026020016040519081016040528092919081815260200182805460018160011615610100020316600290048015610a405780601f10610a1557610100808354040283529160200191610a40565b820191906000526020600020905b815481529060010190602001808311610a2357829003601f168201915b505050505081565b600281805160208101820180518482526020830160208501208183528095505050505050600091509050806000018054600181600116156101000203166002900480601f016020809104026020016040519081016040528092919081815260200182805460018160011615610100020316600290048015610b0a5780601f10610adf57610100808354040283529160200191610b0a565b820191906000526020600020905b815481529060010190602001808311610aed57829003601f168201915b505050505090806001018054600181600116156101000203166002900480601f016020809104026020016040519081016040528092919081815260200182805460018160011615610100020316600290048015610ba85780601f10610b7d57610100808354040283529160200191610ba8565b820191906000526020600020905b815481529060010190602001808311610b8b57829003601f168201915b505050505090806002018054600181600116156101000203166002900480601f016020809104026020016040519081016040528092919081815260200182805460018160011615610100020316600290048015610c465780601f10610c1b57610100808354040283529160200191610c46565b820191906000526020600020905b815481529060010190602001808311610c2957829003601f168201915b505050505090806003018054600181600116156101000203166002900480601f016020809104026020016040519081016040528092919081815260200182805460018160011615610100020316600290048015610ce45780601f10610cb957610100808354040283529160200191610ce4565b820191906000526020600020905b815481529060010190602001808311610cc757829003601f168201915b5050505050908060040154908060050154905086565b600033905090565b600081359050610d118161145d565b92915050565b600081519050610d2681611474565b92915050565b600082601f830112610d3d57600080fd5b8135610d50610d4b82611338565b61130b565b91508082526020830160208301858383011115610d6c57600080fd5b610d7783828461140a565b50505092915050565b600082601f830112610d9157600080fd5b8135610da4610d9f82611364565b61130b565b91508082526020830160208301858383011115610dc057600080fd5b610dcb83828461140a565b50505092915050565b600081359050610de38161148b565b92915050565b600060208284031215610dfb57600080fd5b6000610e0984828501610d02565b91505092915050565b600060208284031215610e2457600080fd5b6000610e3284828501610d17565b91505092915050565b600060208284031215610e4d57600080fd5b600082013567ffffffffffffffff811115610e6757600080fd5b610e7384828501610d2c565b91505092915050565b600060208284031215610e8e57600080fd5b600082013567ffffffffffffffff811115610ea857600080fd5b610eb484828501610d80565b91505092915050565b600060208284031215610ecf57600080fd5b6000610edd84828501610dd4565b91505092915050565b610eef816113c2565b82525050565b610efe816113d4565b82525050565b6000610f0f8261139b565b610f1981856113a6565b9350610f29818560208601611419565b610f328161144c565b840191505092915050565b6000610f488261139b565b610f5281856113b7565b9350610f62818560208601611419565b80840191505092915050565b6000610f7982611390565b610f8381856113a6565b9350610f93818560208601611419565b610f9c8161144c565b840191505092915050565b6000610fb4601e836113a6565b91507f436f6e74726163742069732063757272656e746c792073746f707065642e00006000830152602082019050919050565b6000610ff46026836113a6565b91507f4f776e61626c653a206e6577206f776e657220697320746865207a65726f206160008301527f64647265737300000000000000000000000000000000000000000000000000006020830152604082019050919050565b600061105a6020836113a6565b91507f4572726f723a2050726f6475637420616c72656164792075706c6f616465642e6000830152602082019050919050565b600061109a6022836113a6565b91507f436f6e7472616374206973206e6f742063757272656e746c792073746f70706560008301527f642e0000000000000000000000000000000000000000000000000000000000006020830152604082019050919050565b60006111006020836113a6565b91507f4f776e61626c653a2063616c6c6572206973206e6f7420746865206f776e65726000830152602082019050919050565b61113c81611400565b82525050565b600061114e8284610f3d565b915081905092915050565b600060208201905061116e6000830184610ee6565b92915050565b60006020820190506111896000830184610ef5565b92915050565b600060208201905081810360008301526111a98184610f6e565b905092915050565b600060208201905081810360008301526111cb8184610f04565b905092915050565b600060c08201905081810360008301526111ed8189610f6e565b905081810360208301526112018188610f6e565b905081810360408301526112158187610f6e565b905081810360608301526112298186610f6e565b90506112386080830185611133565b61124560a0830184611133565b979650505050505050565b6000602082019050818103600083015261126981610fa7565b9050919050565b6000602082019050818103600083015261128981610fe7565b9050919050565b600060208201905081810360008301526112a98161104d565b9050919050565b600060208201905081810360008301526112c98161108d565b9050919050565b600060208201905081810360008301526112e9816110f3565b9050919050565b60006020820190506113056000830184611133565b92915050565b6000604051905081810181811067ffffffffffffffff8211171561132e57600080fd5b8060405250919050565b600067ffffffffffffffff82111561134f57600080fd5b601f19601f8301169050602081019050919050565b600067ffffffffffffffff82111561137b57600080fd5b601f19601f8301169050602081019050919050565b600081519050919050565b600081519050919050565b600082825260208201905092915050565b600081905092915050565b60006113cd826113e0565b9050919050565b60008115159050919050565b600073ffffffffffffffffffffffffffffffffffffffff82169050919050565b6000819050919050565b82818337600083830152505050565b60005b8381101561143757808201518184015260208101905061141c565b83811115611446576000848401525b50505050565b6000601f19601f8301169050919050565b611466816113c2565b811461147157600080fd5b50565b61147d816113d4565b811461148857600080fd5b50565b61149481611400565b811461149f57600080fd5b5056fea26469706673582212203b89ddc83c05dcb18c4eb6cffba08ddf0bcac69959ce692112e0d9089a835bdc64736f6c63430006000033",
  "source": "// SPDX-License-Identifier: MIT\npragma solidity ^0.6.0;\npragma experimental ABIEncoderV2;\n\nimport \"@openzeppelin/contracts/math/SafeMath.sol\";\nimport \"@openzeppelin/contracts/access/Ownable.sol\";\n\ncontract Product is Ownable{\n\tusing SafeMath for uint; \n\n\taddress payable contractOwner;\n    bool private stopped; // for use in circuit breaker\n\n\tstruct ProductSubmission{\n\t\tstring ProductHash;\n\t\tstring ProductInfo;\n\t\tstring SupplierDetails;\n\t\tstring SubmissionDate;\n\t\tuint256 BlockNumber;\n\t\tuint isSet; \n\t}\n\n\t/*\n\tstate variable to store a ProductSubmission struct for each possible product hash\n\t */\n\tmapping(string => ProductSubmission) public productsMap;\n\n\t/*\n\ta state variable to store an address corresponding to each product submission\n\t */\n\tmapping(string => address) public productsAddressMap;\n\n\t/*\n\ta dynamically-sized array containing product hashes\n\t */\n\tstring[] public productHashes;\n\n\t/*\n\t@dev fired on submission of a product\n\t */\n\tevent registeredProductEvent(uint indexed _productSubmissionId);\n\n\t/*\n\t@dev Constructor\n\t */\n\tconstructor() public{\n\t\tcontractOwner = msg.sender;\n\t}\n\n\t /*\n        @dev Circuit breaker switch\n    */\n    function toggleContractActive() onlyOwner public returns (bool) {\n        stopped = !stopped;\n        return stopped;\n    }\n\n    /*\n        @dev Circuit breaker modifier. Throws if contract is stopped.\n    */\n    modifier stopInEmergency() {\n        require(!stopped, \"Contract is currently stopped.\");\n        _;\n    }\n\n    /*\n        @dev Circuit breaker modifier. Throws if contract is not stopped.\n    */\n    modifier onlyInEmergency() {\n        require(stopped, \"Contract is not currently stopped.\");\n        _;\n    }\n\n\tfunction registerProductSubmission(\n\t\tstring memory ProductHash\n\t\t) \n\n\t\tstopInEmergency public view returns(uint){\n\n\t\t\trequire(this.checkProductSubmission(ProductHash) == false, \"Error: Product already uploaded.\");\n\n\t        uint256 SubmissionBlocknumber = block.number;\n\t        uint256 IsSet = 1;\n\t\t}\n\n\tfunction checkProductSubmission(string memory hash) \n\tpublic stopInEmergency view returns (bool) {\n        // check whether the hash is among the list of known hashes\n        uint onChainIsSet = productsMap[hash].isSet;\n        if (onChainIsSet > 0) {\n            // if yes, return true\n            return true;\n          }\n        // otherwise return false\n        return false;\n    }\n    /**\n     * @dev Confirm whether the contract is stopped or not.\n     */\n    function checkContractIsRunning() public view returns (bool) {\n        return stopped;\n    }\n\n\t/*\n\t @dev fallback function. This gets executed if a transaction with invalid data is sent to the contract or\n     *   just ether without data. We revert the send so that no-one accidentally loses money when using the contract.\n\t */\n\n\t// function() external {\n //        revert();\n //    }\n\n    function destroy() public onlyOwner onlyInEmergency {\n        // cast owner which is address to address payable\n        selfdestruct(contractOwner);\n    }\n}",
  "sourcePath": "/home/shak/Desktop/stupid/smartcontracts/contracts/Product.sol",
  "compiler": {
    "name": "solc",
    "version": "0.6.0+commit.26b70077.Emscripten.clang"
  },
  "schemaVersion": "3.3.2",
  "updatedAt": "2020-12-14T12:03:06.939Z",
  "devdoc": {
    "methods": {
      "checkContractIsRunning()": {
        "details": "Confirm whether the contract is stopped or not."
      },
      "owner()": {
        "details": "Returns the address of the current owner."
      },
      "renounceOwnership()": {
        "details": "Leaves the contract without owner. It will not be possible to call `onlyOwner` functions anymore. Can only be called by the current owner.     * NOTE: Renouncing ownership will leave the contract without an owner, thereby removing any functionality that is only available to the owner."
      },
      "transferOwnership(address)": {
        "details": "Transfers ownership of the contract to a new account (`newOwner`). Can only be called by the current owner."
      }
    }
  },
  "userdoc": {
    "methods": {}
  }
}