{
  "contractName": "Product",
  "abi": [
    {
      "inputs": [],
      "stateMutability": "nonpayable",
      "type": "constructor"
    },
    {
      "anonymous": false,
      "inputs": [
        {
          "indexed": true,
          "internalType": "address",
          "name": "previousOwner",
          "type": "address"
        },
        {
          "indexed": true,
          "internalType": "address",
          "name": "newOwner",
          "type": "address"
        }
      ],
      "name": "OwnershipTransferred",
      "type": "event"
    },
    {
      "anonymous": false,
      "inputs": [
        {
          "indexed": true,
          "internalType": "uint256",
          "name": "_productSubmissionId",
          "type": "uint256"
        }
      ],
      "name": "registeredProductEvent",
      "type": "event"
    },
    {
      "inputs": [],
      "name": "buyer",
      "outputs": [
        {
          "internalType": "address",
          "name": "",
          "type": "address"
        }
      ],
      "stateMutability": "view",
      "type": "function"
    },
    {
      "inputs": [],
      "name": "owner",
      "outputs": [
        {
          "internalType": "address",
          "name": "",
          "type": "address"
        }
      ],
      "stateMutability": "view",
      "type": "function"
    },
    {
      "inputs": [
        {
          "internalType": "uint256",
          "name": "",
          "type": "uint256"
        }
      ],
      "name": "productHashes",
      "outputs": [
        {
          "internalType": "string",
          "name": "",
          "type": "string"
        }
      ],
      "stateMutability": "view",
      "type": "function"
    },
    {
      "inputs": [
        {
          "internalType": "string",
          "name": "",
          "type": "string"
        }
      ],
      "name": "productsAddressMap",
      "outputs": [
        {
          "internalType": "address",
          "name": "",
          "type": "address"
        }
      ],
      "stateMutability": "view",
      "type": "function"
    },
    {
      "inputs": [
        {
          "internalType": "string",
          "name": "",
          "type": "string"
        }
      ],
      "name": "productsMap",
      "outputs": [
        {
          "internalType": "string",
          "name": "ProductHash",
          "type": "string"
        },
        {
          "internalType": "string",
          "name": "ProductInfo",
          "type": "string"
        },
        {
          "internalType": "string",
          "name": "SupplierDetails",
          "type": "string"
        },
        {
          "internalType": "string",
          "name": "SubmissionDate",
          "type": "string"
        },
        {
          "internalType": "uint256",
          "name": "BlockNumber",
          "type": "uint256"
        },
        {
          "internalType": "uint256",
          "name": "isSet",
          "type": "uint256"
        }
      ],
      "stateMutability": "view",
      "type": "function"
    },
    {
      "inputs": [],
      "name": "renounceOwnership",
      "outputs": [],
      "stateMutability": "nonpayable",
      "type": "function"
    },
    {
      "inputs": [],
      "name": "seller",
      "outputs": [
        {
          "internalType": "address",
          "name": "",
          "type": "address"
        }
      ],
      "stateMutability": "view",
      "type": "function"
    },
    {
      "inputs": [
        {
          "internalType": "address",
          "name": "newOwner",
          "type": "address"
        }
      ],
      "name": "transferOwnership",
      "outputs": [],
      "stateMutability": "nonpayable",
      "type": "function"
    },
    {
      "inputs": [
        {
          "internalType": "uint256",
          "name": "_orderAmt",
          "type": "uint256"
        }
      ],
      "name": "setOrderAmt",
      "outputs": [],
      "stateMutability": "nonpayable",
      "type": "function"
    },
    {
      "inputs": [
        {
          "internalType": "bytes32[50]",
          "name": "_msg",
          "type": "bytes32[50]"
        }
      ],
      "name": "setOrderDetails",
      "outputs": [],
      "stateMutability": "nonpayable",
      "type": "function"
    },
    {
      "inputs": [],
      "name": "toggleContractActive",
      "outputs": [
        {
          "internalType": "bool",
          "name": "",
          "type": "bool"
        }
      ],
      "stateMutability": "nonpayable",
      "type": "function"
    },
    {
      "inputs": [
        {
          "internalType": "string",
          "name": "ProductHash",
          "type": "string"
        }
      ],
      "name": "registerProductSubmission",
      "outputs": [
        {
          "internalType": "uint256",
          "name": "",
          "type": "uint256"
        }
      ],
      "stateMutability": "view",
      "type": "function"
    },
    {
      "inputs": [
        {
          "internalType": "string",
          "name": "hash",
          "type": "string"
        }
      ],
      "name": "checkProductSubmission",
      "outputs": [
        {
          "internalType": "bool",
          "name": "",
          "type": "bool"
        }
      ],
      "stateMutability": "view",
      "type": "function"
    },
    {
      "inputs": [],
      "name": "checkContractIsRunning",
      "outputs": [
        {
          "internalType": "bool",
          "name": "",
          "type": "bool"
        }
      ],
      "stateMutability": "view",
      "type": "function"
    },
    {
      "inputs": [],
      "name": "destroy",
      "outputs": [],
      "stateMutability": "nonpayable",
      "type": "function"
    },
    {
      "inputs": [
        {
          "internalType": "bool",
          "name": "_orderCompletion",
          "type": "bool"
        }
      ],
      "name": "setOrderCompletion",
      "outputs": [],
      "stateMutability": "nonpayable",
      "type": "function"
    },
    {
      "inputs": [
        {
          "internalType": "address",
          "name": "_buyer",
          "type": "address"
        }
      ],
      "name": "setBuyer",
      "outputs": [],
      "stateMutability": "nonpayable",
      "type": "function"
    },
    {
      "inputs": [],
      "name": "getBuyer",
      "outputs": [
        {
          "internalType": "address",
          "name": "",
          "type": "address"
        }
      ],
      "stateMutability": "view",
      "type": "function"
    },
    {
      "inputs": [],
      "name": "getSeller",
      "outputs": [
        {
          "internalType": "address",
          "name": "",
          "type": "address"
        }
      ],
      "stateMutability": "view",
      "type": "function"
    },
    {
      "inputs": [],
      "name": "getSuppliers",
      "outputs": [
        {
          "internalType": "address[]",
          "name": "",
          "type": "address[]"
        }
      ],
      "stateMutability": "view",
      "type": "function"
    },
    {
      "inputs": [],
      "name": "getDeliveryDate",
      "outputs": [
        {
          "internalType": "bytes32",
          "name": "",
          "type": "bytes32"
        }
      ],
      "stateMutability": "view",
      "type": "function"
    },
    {
      "inputs": [],
      "name": "getPaymentDate",
      "outputs": [
        {
          "internalType": "bytes32",
          "name": "",
          "type": "bytes32"
        }
      ],
      "stateMutability": "view",
      "type": "function"
    },
    {
      "inputs": [],
      "name": "getOrderAmt",
      "outputs": [
        {
          "internalType": "uint256",
          "name": "",
          "type": "uint256"
        }
      ],
      "stateMutability": "view",
      "type": "function"
    },
    {
      "inputs": [],
      "name": "getOrderDetails",
      "outputs": [
        {
          "internalType": "bytes32[50]",
          "name": "",
          "type": "bytes32[50]"
        }
      ],
      "stateMutability": "view",
      "type": "function"
    },
    {
      "inputs": [],
      "name": "getApprovalSeller",
      "outputs": [
        {
          "internalType": "bool",
          "name": "",
          "type": "bool"
        }
      ],
      "stateMutability": "view",
      "type": "function"
    },
    {
      "inputs": [],
      "name": "getBuyerApproval",
      "outputs": [
        {
          "internalType": "bool",
          "name": "",
          "type": "bool"
        }
      ],
      "stateMutability": "view",
      "type": "function"
    },
    {
      "inputs": [
        {
          "internalType": "address",
          "name": "_seller",
          "type": "address"
        }
      ],
      "name": "setSeller",
      "outputs": [],
      "stateMutability": "nonpayable",
      "type": "function"
    },
    {
      "inputs": [
        {
          "internalType": "bool",
          "name": "_approvalSeller",
          "type": "bool"
        }
      ],
      "name": "setApprovalSeller",
      "outputs": [],
      "stateMutability": "nonpayable",
      "type": "function"
    },
    {
      "inputs": [
        {
          "internalType": "bool",
          "name": "_approvalBuyer",
          "type": "bool"
        }
      ],
      "name": "setApprovalBuyer",
      "outputs": [],
      "stateMutability": "nonpayable",
      "type": "function"
    }
  ],
  "bytecode": "0x608060405234801561001057600080fd5b50600061002161010560201b60201c565b9050806000806101000a81548173ffffffffffffffffffffffffffffffffffffffff021916908373ffffffffffffffffffffffffffffffffffffffff1602179055508073ffffffffffffffffffffffffffffffffffffffff16600073ffffffffffffffffffffffffffffffffffffffff167f8be0079c531659141344cd1fd0a4f28419497f9722a3daafe3b4186f6b6457e060405160405180910390a35033600160006101000a81548173ffffffffffffffffffffffffffffffffffffffff021916908373ffffffffffffffffffffffffffffffffffffffff16021790555061010d565b600033905090565b612c57806200011d6000396000f3fe608060405234801561001057600080fd5b50600436106101cf5760003560e01c8063900089ec11610104578063b0710841116100a2578063e99d286611610071578063e99d2866146108e7578063f2fde38b1461092b578063f58e2eab1461096f578063f63f956414610a16576101cf565b8063b071084114610809578063b4233e9f14610839578063dbd0e1b61461087f578063dfab317a146108c9576101cf565b8063a3f09ad6116100de578063a3f09ad6146106b2578063a62a4c85146106f6578063a81fe6ba14610714578063ad7cf43014610736576101cf565b8063900089ec146104b857806395f2d584146104e85780639b3f5e1c146105b7576101cf565b806347c9563411610171578063715018a61161014b578063715018a6146104105780637150d8ae1461041a57806383197ef0146104645780638da5cb5b1461046e576101cf565b806347c9563414610331578063603daf9a1461039857806370113501146103e2576101cf565b80631ac84b22116101ad5780631ac84b22146102705780632e19ce5b146102925780633fad16a6146102b057806343516832146102d2576101cf565b806303126c9a146101d457806308551a53146102045780631385d24c1461024e575b600080fd5b610202600480360360208110156101ea57600080fd5b81019080803515159060200190929190505050610c9c565b005b61020c610f35565b604051808273ffffffffffffffffffffffffffffffffffffffff1673ffffffffffffffffffffffffffffffffffffffff16815260200191505060405180910390f35b610256610f5b565b604051808215151515815260200191505060405180910390f35b610278611065565b604051808215151515815260200191505060405180910390f35b61029a61107c565b6040518082815260200191505060405180910390f35b6102b8611105565b604051808215151515815260200191505060405180910390f35b6102da61111c565b6040518080602001828103825283818151815260200191508051906020019060200280838360005b8381101561031d578082015181840152602081019050610302565b505050509050019250505060405180910390f35b610396600480360361064081101561034857600080fd5b810190808061064001906032806020026040519081016040528092919082603260200280828437600081840152601f19601f8201169050808301925050505050509192919290505050611338565b005b6103a061134d565b604051808273ffffffffffffffffffffffffffffffffffffffff1673ffffffffffffffffffffffffffffffffffffffff16815260200191505060405180910390f35b61040e600480360360208110156103f857600080fd5b810190808035906020019092919050505061143e565b005b6104186114c2565b005b61042261164a565b604051808273ffffffffffffffffffffffffffffffffffffffff1673ffffffffffffffffffffffffffffffffffffffff16815260200191505060405180910390f35b61046c611670565b005b6104766117d9565b604051808273ffffffffffffffffffffffffffffffffffffffff1673ffffffffffffffffffffffffffffffffffffffff16815260200191505060405180910390f35b6104e6600480360360208110156104ce57600080fd5b81019080803515159060200190929190505050611802565b005b6105a1600480360360208110156104fe57600080fd5b810190808035906020019064010000000081111561051b57600080fd5b82018360208201111561052d57600080fd5b8035906020019184600183028401116401000000008311171561054f57600080fd5b91908080601f016020809104026020016040519081016040528093929190818152602001838380828437600081840152601f19601f820116905080830192505050505050509192919290505050611933565b6040518082815260200191505060405180910390f35b610670600480360360208110156105cd57600080fd5b81019080803590602001906401000000008111156105ea57600080fd5b8201836020820111156105fc57600080fd5b8035906020019184600183028401116401000000008311171561061e57600080fd5b91908080601f016020809104026020016040519081016040528093929190818152602001838380828437600081840152601f19601f820116905080830192505050505050509192919290505050611b34565b604051808273ffffffffffffffffffffffffffffffffffffffff1673ffffffffffffffffffffffffffffffffffffffff16815260200191505060405180910390f35b6106f4600480360360208110156106c857600080fd5b81019080803573ffffffffffffffffffffffffffffffffffffffff169060200190929190505050611b7d565b005b6106fe611dd5565b6040518082815260200191505060405180910390f35b61071c611ddf565b604051808215151515815260200191505060405180910390f35b6107ef6004803603602081101561074c57600080fd5b810190808035906020019064010000000081111561076957600080fd5b82018360208201111561077b57600080fd5b8035906020019184600183028401116401000000008311171561079d57600080fd5b91908080601f016020809104026020016040519081016040528093929190818152602001838380828437600081840152601f19601f820116905080830192505050505050509192919290505050611df6565b604051808215151515815260200191505060405180910390f35b6108376004803603602081101561081f57600080fd5b81019080803515159060200190929190505050611f0a565b005b61084161213c565b6040518082603260200280838360005b8381101561086c578082015181840152602081019050610851565b5050505090500191505060405180910390f35b6108876121ff565b604051808273ffffffffffffffffffffffffffffffffffffffff1673ffffffffffffffffffffffffffffffffffffffff16815260200191505060405180910390f35b6108d16122f0565b6040518082815260200191505060405180910390f35b610929600480360360208110156108fd57600080fd5b81019080803573ffffffffffffffffffffffffffffffffffffffff169060200190929190505050612379565b005b61096d6004803603602081101561094157600080fd5b81019080803573ffffffffffffffffffffffffffffffffffffffff1690602001909291905050506125d1565b005b61099b6004803603602081101561098557600080fd5b81019080803590602001909291905050506127de565b6040518080602001828103825283818151815260200191508051906020019080838360005b838110156109db5780820151818401526020810190506109c0565b50505050905090810190601f168015610a085780820380516001836020036101000a031916815260200191505b509250505060405180910390f35b610acf60048036036020811015610a2c57600080fd5b8101908080359060200190640100000000811115610a4957600080fd5b820183602082011115610a5b57600080fd5b80359060200191846001830284011164010000000083111715610a7d57600080fd5b91908080601f016020809104026020016040519081016040528093929190818152602001838380828437600081840152601f19601f820116905080830192505050505050509192919290505050612897565b604051808060200180602001806020018060200187815260200186815260200185810385528b818151815260200191508051906020019080838360005b83811015610b27578082015181840152602081019050610b0c565b50505050905090810190601f168015610b545780820380516001836020036101000a031916815260200191505b5085810384528a818151815260200191508051906020019080838360005b83811015610b8d578082015181840152602081019050610b72565b50505050905090810190601f168015610bba5780820380516001836020036101000a031916815260200191505b50858103835289818151815260200191508051906020019080838360005b83811015610bf3578082015181840152602081019050610bd8565b50505050905090810190601f168015610c205780820380516001836020036101000a031916815260200191505b50858103825288818151815260200191508051906020019080838360005b83811015610c59578082015181840152602081019050610c3e565b50505050905090810190601f168015610c865780820380516001836020036101000a031916815260200191505b509a505050505050505050505060405180910390f35b6006546000602060ff161415610d1a576040517f08c379a00000000000000000000000000000000000000000000000000000000081526004018080602001828103825260168152602001807f546865726520617265206e6f20737570706c696572730000000000000000000081525060200191505060405180910390fd5b6007546000602060ff161415610d98576040517f08c379a00000000000000000000000000000000000000000000000000000000081526004018080602001828103825260168152602001807f546865726520617265206e6f20737570706c696572730000000000000000000081525060200191505060405180910390fd5b600060321415610e10576040517f08c379a00000000000000000000000000000000000000000000000000000000081526004018080602001828103825260158152602001807f4f726465722044657461696c73206e6f7420736574000000000000000000000081525060200191505060405180910390fd5b603b60009054906101000a900460ff166000151581151514610e9a576040517f08c379a00000000000000000000000000000000000000000000000000000000081526004018080602001828103825260118152602001807f56616c756520616c72656164792073657400000000000000000000000000000081525060200191505060405180910390fd5b6008546000811415610f14576040517f08c379a000000000000000000000000000000000000000000000000000000000815260040180806020018281038252600d8152602001807f56616c7565206e6f74207365740000000000000000000000000000000000000081525060200191505060405180910390fd5b84603b60006101000a81548160ff0219169083151502179055505050505050565b600560009054906101000a900473ffffffffffffffffffffffffffffffffffffffff1681565b6000610f65612b49565b73ffffffffffffffffffffffffffffffffffffffff166000809054906101000a900473ffffffffffffffffffffffffffffffffffffffff1673ffffffffffffffffffffffffffffffffffffffff1614611026576040517f08c379a00000000000000000000000000000000000000000000000000000000081526004018080602001828103825260208152602001807f4f776e61626c653a2063616c6c6572206973206e6f7420746865206f776e657281525060200191505060405180910390fd5b600160149054906101000a900460ff1615600160146101000a81548160ff021916908315150217905550600160149054906101000a900460ff16905090565b6000603b60009054906101000a900460ff16905090565b60006007546000602060ff1614156110fc576040517f08c379a00000000000000000000000000000000000000000000000000000000081526004018080602001828103825260168152602001807f546865726520617265206e6f20737570706c696572730000000000000000000081525060200191505060405180910390fd5b60075491505090565b6000603b60019054906101000a900460ff16905090565b60606000603c80549050141561119a576040517f08c379a00000000000000000000000000000000000000000000000000000000081526004018080602001828103825260168152602001807f546865726520617265206e6f20737570706c696572730000000000000000000081525060200191505060405180910390fd5b60011515603b60009054906101000a900460ff16151514611223576040517f08c379a00000000000000000000000000000000000000000000000000000000081526004018080602001828103825260148152602001807f53656c6c6572206861736e27742061677265656400000000000000000000000081525060200191505060405180910390fd5b60011515603b60009054906101000a900460ff161515146112ac576040517f08c379a00000000000000000000000000000000000000000000000000000000081526004018080602001828103825260148152602001807f53656c6c6572206861736e27742061677265656400000000000000000000000081525060200191505060405180910390fd5b603c80548060200260200160405190810160405280929190818152602001828054801561132e57602002820191906000526020600020905b8160009054906101000a900473ffffffffffffffffffffffffffffffffffffffff1673ffffffffffffffffffffffffffffffffffffffff16815260200190600101908083116112e4575b5050505050905090565b806009906032611349929190612b51565b5050565b6000600460009054906101000a900473ffffffffffffffffffffffffffffffffffffffff16600073ffffffffffffffffffffffffffffffffffffffff168173ffffffffffffffffffffffffffffffffffffffff161415611415576040517f08c379a00000000000000000000000000000000000000000000000000000000081526004018080602001828103825260118152602001807f56616c7565206e6f74207965742073657400000000000000000000000000000081525060200191505060405180910390fd5b600460009054906101000a900473ffffffffffffffffffffffffffffffffffffffff1691505090565b600854600081146114b7576040517f08c379a000000000000000000000000000000000000000000000000000000000815260040180806020018281038252601a8152602001807f56616c75652068617320616c7265616479206265656e2073657400000000000081525060200191505060405180910390fd5b816008819055505050565b6114ca612b49565b73ffffffffffffffffffffffffffffffffffffffff166000809054906101000a900473ffffffffffffffffffffffffffffffffffffffff1673ffffffffffffffffffffffffffffffffffffffff161461158b576040517f08c379a00000000000000000000000000000000000000000000000000000000081526004018080602001828103825260208152602001807f4f776e61626c653a2063616c6c6572206973206e6f7420746865206f776e657281525060200191505060405180910390fd5b600073ffffffffffffffffffffffffffffffffffffffff166000809054906101000a900473ffffffffffffffffffffffffffffffffffffffff1673ffffffffffffffffffffffffffffffffffffffff167f8be0079c531659141344cd1fd0a4f28419497f9722a3daafe3b4186f6b6457e060405160405180910390a360008060006101000a81548173ffffffffffffffffffffffffffffffffffffffff021916908373ffffffffffffffffffffffffffffffffffffffff160217905550565b600460009054906101000a900473ffffffffffffffffffffffffffffffffffffffff1681565b611678612b49565b73ffffffffffffffffffffffffffffffffffffffff166000809054906101000a900473ffffffffffffffffffffffffffffffffffffffff1673ffffffffffffffffffffffffffffffffffffffff1614611739576040517f08c379a00000000000000000000000000000000000000000000000000000000081526004018080602001828103825260208152602001807f4f776e61626c653a2063616c6c6572206973206e6f7420746865206f776e657281525060200191505060405180910390fd5b600160149054906101000a900460ff1661179e576040517f08c379a0000000000000000000000000000000000000000000000000000000008152600401808060200182810382526022815260200180612c006022913960400191505060405180910390fd5b600160009054906101000a900473ffffffffffffffffffffffffffffffffffffffff1673ffffffffffffffffffffffffffffffffffffffff16ff5b60008060009054906101000a900473ffffffffffffffffffffffffffffffffffffffff16905090565b60011515603b60009054906101000a900460ff1615151461188b576040517f08c379a00000000000000000000000000000000000000000000000000000000081526004018080602001828103825260148152602001807f53656c6c6572206861736e27742061677265656400000000000000000000000081525060200191505060405180910390fd5b603b60019054906101000a900460ff166000151581151514611915576040517f08c379a00000000000000000000000000000000000000000000000000000000081526004018080602001828103825260118152602001807f56616c756520616c72656164792073657400000000000000000000000000000081525060200191505060405180910390fd5b81603b60016101000a81548160ff0219169083151502179055505050565b6000600160149054906101000a900460ff16156119b8576040517f08c379a000000000000000000000000000000000000000000000000000000000815260040180806020018281038252601e8152602001807f436f6e74726163742069732063757272656e746c792073746f707065642e000081525060200191505060405180910390fd5b600015153073ffffffffffffffffffffffffffffffffffffffff1663ad7cf430846040518263ffffffff1660e01b81526004018080602001828103825283818151815260200191508051906020019080838360005b83811015611a28578082015181840152602081019050611a0d565b50505050905090810190601f168015611a555780820380516001836020036101000a031916815260200191505b509250505060206040518083038186803b158015611a7257600080fd5b505afa158015611a86573d6000803e3d6000fd5b505050506040513d6020811015611a9c57600080fd5b8101908080519060200190929190505050151514611b22576040517f08c379a00000000000000000000000000000000000000000000000000000000081526004018080602001828103825260208152602001807f4572726f723a2050726f6475637420616c72656164792075706c6f616465642e81525060200191505060405180910390fd5b60004390506000600190505050919050565b603e818051602081018201805184825260208301602085012081835280955050505050506000915054906101000a900473ffffffffffffffffffffffffffffffffffffffff1681565b600460009054906101000a900473ffffffffffffffffffffffffffffffffffffffff16600073ffffffffffffffffffffffffffffffffffffffff168173ffffffffffffffffffffffffffffffffffffffff1614611c42576040517f08c379a00000000000000000000000000000000000000000000000000000000081526004018080602001828103825260118152602001807f56616c756520616c72656164792073657400000000000000000000000000000081525060200191505060405180910390fd5b81600260009054906101000a900473ffffffffffffffffffffffffffffffffffffffff1673ffffffffffffffffffffffffffffffffffffffff1663c3c5a547826040518263ffffffff1660e01b8152600401808273ffffffffffffffffffffffffffffffffffffffff1673ffffffffffffffffffffffffffffffffffffffff16815260200191505060206040518083038186803b158015611ce257600080fd5b505afa158015611cf6573d6000803e3d6000fd5b505050506040513d6020811015611d0c57600080fd5b8101908080519060200190929190505050611d8f576040517f08c379a000000000000000000000000000000000000000000000000000000000815260040180806020018281038252600d8152602001807f4163636573732044656e6965640000000000000000000000000000000000000081525060200191505060405180910390fd5b82600460006101000a81548173ffffffffffffffffffffffffffffffffffffffff021916908373ffffffffffffffffffffffffffffffffffffffff160217905550505050565b6000600854905090565b6000600160149054906101000a900460ff16905090565b6000600160149054906101000a900460ff1615611e7b576040517f08c379a000000000000000000000000000000000000000000000000000000000815260040180806020018281038252601e8152602001807f436f6e74726163742069732063757272656e746c792073746f707065642e000081525060200191505060405180910390fd5b6000603d836040518082805190602001908083835b60208310611eb35780518252602082019150602081019050602083039250611e90565b6001836020036101000a03801982511681845116808217855250505050505090500191505090815260200160405180910390206005015490506000811115611eff576001915050611f05565b60009150505b919050565b60011515603b60009054906101000a900460ff16151514611f93576040517f08c379a00000000000000000000000000000000000000000000000000000000081526004018080602001828103825260148152602001807f53656c6c6572206861736e27742061677265656400000000000000000000000081525060200191505060405180910390fd5b60011515603b60009054906101000a900460ff1615151461201c576040517f08c379a00000000000000000000000000000000000000000000000000000000081526004018080602001828103825260148152602001807f53656c6c6572206861736e27742061677265656400000000000000000000000081525060200191505060405180910390fd5b600060321415612094576040517f08c379a00000000000000000000000000000000000000000000000000000000081526004018080602001828103825260158152602001807f4f726465722044657461696c73206e6f7420736574000000000000000000000081525060200191505060405180910390fd5b603b60029054906101000a900460ff16600015158115151461211e576040517f08c379a00000000000000000000000000000000000000000000000000000000081526004018080602001828103825260118152602001807f56616c756520616c72656164792073657400000000000000000000000000000081525060200191505060405180910390fd5b81603b60026101000a81548160ff0219169083151502179055505050565b612144612b91565b6000603214156121bc576040517f08c379a00000000000000000000000000000000000000000000000000000000081526004018080602001828103825260158152602001807f4f726465722044657461696c73206e6f7420736574000000000000000000000081525060200191505060405180910390fd5b60096032806020026040519081016040528092919082603280156121f5576020028201915b8154815260200190600101908083116121e1575b5050505050905090565b6000600560009054906101000a900473ffffffffffffffffffffffffffffffffffffffff16600073ffffffffffffffffffffffffffffffffffffffff168173ffffffffffffffffffffffffffffffffffffffff1614156122c7576040517f08c379a00000000000000000000000000000000000000000000000000000000081526004018080602001828103825260118152602001807f56616c7565206e6f74207965742073657400000000000000000000000000000081525060200191505060405180910390fd5b600560009054906101000a900473ffffffffffffffffffffffffffffffffffffffff1691505090565b60006006546000602060ff161415612370576040517f08c379a00000000000000000000000000000000000000000000000000000000081526004018080602001828103825260168152602001807f546865726520617265206e6f20737570706c696572730000000000000000000081525060200191505060405180910390fd5b60065491505090565b600560009054906101000a900473ffffffffffffffffffffffffffffffffffffffff16600073ffffffffffffffffffffffffffffffffffffffff168173ffffffffffffffffffffffffffffffffffffffff161461243e576040517f08c379a00000000000000000000000000000000000000000000000000000000081526004018080602001828103825260118152602001807f56616c756520616c72656164792073657400000000000000000000000000000081525060200191505060405180910390fd5b81600260009054906101000a900473ffffffffffffffffffffffffffffffffffffffff1673ffffffffffffffffffffffffffffffffffffffff1663c3c5a547826040518263ffffffff1660e01b8152600401808273ffffffffffffffffffffffffffffffffffffffff1673ffffffffffffffffffffffffffffffffffffffff16815260200191505060206040518083038186803b1580156124de57600080fd5b505afa1580156124f2573d6000803e3d6000fd5b505050506040513d602081101561250857600080fd5b810190808051906020019092919050505061258b576040517f08c379a000000000000000000000000000000000000000000000000000000000815260040180806020018281038252600d8152602001807f4163636573732044656e6965640000000000000000000000000000000000000081525060200191505060405180910390fd5b82600560006101000a81548173ffffffffffffffffffffffffffffffffffffffff021916908373ffffffffffffffffffffffffffffffffffffffff160217905550505050565b6125d9612b49565b73ffffffffffffffffffffffffffffffffffffffff166000809054906101000a900473ffffffffffffffffffffffffffffffffffffffff1673ffffffffffffffffffffffffffffffffffffffff161461269a576040517f08c379a00000000000000000000000000000000000000000000000000000000081526004018080602001828103825260208152602001807f4f776e61626c653a2063616c6c6572206973206e6f7420746865206f776e657281525060200191505060405180910390fd5b600073ffffffffffffffffffffffffffffffffffffffff168173ffffffffffffffffffffffffffffffffffffffff161415612720576040517f08c379a0000000000000000000000000000000000000000000000000000000008152600401808060200182810382526026815260200180612bda6026913960400191505060405180910390fd5b8073ffffffffffffffffffffffffffffffffffffffff166000809054906101000a900473ffffffffffffffffffffffffffffffffffffffff1673ffffffffffffffffffffffffffffffffffffffff167f8be0079c531659141344cd1fd0a4f28419497f9722a3daafe3b4186f6b6457e060405160405180910390a3806000806101000a81548173ffffffffffffffffffffffffffffffffffffffff021916908373ffffffffffffffffffffffffffffffffffffffff16021790555050565b603f81815481106127eb57fe5b906000526020600020016000915090508054600181600116156101000203166002900480601f01602080910402602001604051908101604052809291908181526020018280546001816001161561010002031660029004801561288f5780601f106128645761010080835404028352916020019161288f565b820191906000526020600020905b81548152906001019060200180831161287257829003601f168201915b505050505081565b603d81805160208101820180518482526020830160208501208183528095505050505050600091509050806000018054600181600116156101000203166002900480601f0160208091040260200160405190810160405280929190818152602001828054600181600116156101000203166002900480156129595780601f1061292e57610100808354040283529160200191612959565b820191906000526020600020905b81548152906001019060200180831161293c57829003601f168201915b505050505090806001018054600181600116156101000203166002900480601f0160208091040260200160405190810160405280929190818152602001828054600181600116156101000203166002900480156129f75780601f106129cc576101008083540402835291602001916129f7565b820191906000526020600020905b8154815290600101906020018083116129da57829003601f168201915b505050505090806002018054600181600116156101000203166002900480601f016020809104026020016040519081016040528092919081815260200182805460018160011615610100020316600290048015612a955780601f10612a6a57610100808354040283529160200191612a95565b820191906000526020600020905b815481529060010190602001808311612a7857829003601f168201915b505050505090806003018054600181600116156101000203166002900480601f016020809104026020016040519081016040528092919081815260200182805460018160011615610100020316600290048015612b335780601f10612b0857610100808354040283529160200191612b33565b820191906000526020600020905b815481529060010190602001808311612b1657829003601f168201915b5050505050908060040154908060050154905086565b600033905090565b8260328101928215612b80579160200282015b82811115612b7f578251825591602001919060010190612b64565b5b509050612b8d9190612bb4565b5090565b604051806106400160405280603290602082028038833980820191505090505090565b612bd691905b80821115612bd2576000816000905550600101612bba565b5090565b9056fe4f776e61626c653a206e6577206f776e657220697320746865207a65726f2061646472657373436f6e7472616374206973206e6f742063757272656e746c792073746f707065642ea26469706673582212202e90673bebb1d049700d38169ccc2e55c532e5414c0848adeac4048ccef698f964736f6c63430006000033",
  "source": "// SPDX-License-Identifier: GPL-3.0\npragma solidity ^0.6.0;\n\nimport \"@openzeppelin/contracts/math/SafeMath.sol\";\nimport \"@openzeppelin/contracts/access/Ownable.sol\";\nimport \"./Registrations.sol\";\nimport \"./Token/ERC20.sol\";\n\ncontract Product is Context, Ownable{\n\tusing SafeMath for uint; \n\taddress payable contractOwner;\n    bool private stopped; // for use in circuit breaker\n\n    Registrations private registrations;\n    \n    //identifiers  \n    bytes32 OrderId;\n    address public buyer;\n    address public seller; //supplier(farmer)\n    bytes32 deliveryDate;\n    bytes32 paymentDate;\n    uint256 orderAmount;\n    bytes32[50] orderDetails;\n    \n    bool approvalSeller;\n    bool approvalBuyer;\n    bool orderCompletion;   \n    \n    // a dynamically sized array of suppliers\n    address[] suppliers; //sellers (farmers)\n\n    /**\n    * a struct acts as a loose bag of variables\n    */\n\tstruct ProductSubmission{\n\t\tstring ProductHash;\n\t\tstring ProductInfo;\n\t\tstring SupplierDetails;\n\t\tstring SubmissionDate;\n\t\tuint256 BlockNumber;\n\t\tuint isSet; \n\t}\n\t\n\tmodifier checkUser(address _address) {\n        require(registrations.isRegistered(_address), \"Access Denied\");\n        _;\n    }\n    modifier onlyOnNum(uint256 num) {\n        require(num != 0, \"Value not set\");\n        _;\n    }\n\n    modifier onlyOnSuppliers {\n        require(suppliers.length != 0, \"There are no suppliers\");\n        _;\n    }\n    modifier onSellerTrue() {\n        require(approvalSeller == true, \"Seller hasn't agreed\");\n\n        _;\n    }\n    modifier onBuyerTrue() {\n        require(approvalSeller == true, \"Seller hasn't agreed\");\n\n        _;\n    }\n    modifier onlyOnSetAddress(address check) {\n        require(check != address(0), \"Value not yet set\");\n        _;\n    }\n\n    modifier onlyOnString(bytes32 str) {\n        require(str.length != 0, \"There are no suppliers\");\n        _;\n    }\n    modifier onStringNull(bytes32 str) {\n        require(str.length == 0, \"Value has already been set\");\n        _;\n    }\n    modifier onUserNull(address user) {\n        require(user == address(0), \"Value already set\");\n        _;\n    }\n\n    modifier onBoolNull(bool val) {\n        require(val == false, \"Value already set\");\n        _;\n    }\n    modifier onNumNull(uint256 num) {\n        require(num == 0, \"Value has already been set\");\n        _;\n    }\n\n    modifier checkOrderCompletion(bool _orderCompletion) {\n        require(_orderCompletion == true, \"Order has to be completed\");\n        _;\n    }\n    function setOrderAmt(uint256 _orderAmt) public onNumNull(orderAmount) {\n        orderAmount = _orderAmt;\n    }\n    function setOrderDetails(bytes32[50] memory _msg) public {\n        orderDetails = _msg;\n    }\n\n\t/*\n\tstate variable to store a ProductSubmission struct for each possible product hash\n\t */\n\tmapping(string => ProductSubmission) public productsMap;\n\n\t/*\n\ta state variable to store an address corresponding to each product submission\n\t */\n\tmapping(string => address) public productsAddressMap;\n\n\t/*\n\ta dynamically-sized array containing product hashes\n\t */\n\tstring[] public productHashes;\n\n\t/*\n\t@dev fired on submission of a product\n\t */\n\tevent registeredProductEvent(uint indexed _productSubmissionId);\n\n\t/*\n\t@dev Constructor\n\t */\n\tconstructor() public{\n\t\tcontractOwner = msg.sender;\n\t}\n\n\t /*\n        @dev Circuit breaker switch\n    */\n    function toggleContractActive() onlyOwner public returns (bool) {\n        stopped = !stopped;\n        return stopped;\n    }\n\n    /*\n        @dev Circuit breaker modifier. Throws if contract is stopped.\n    */\n    modifier stopInEmergency() {\n        require(!stopped, \"Contract is currently stopped.\");\n        _;\n    }\n\n    /*\n        @dev Circuit breaker modifier. Throws if contract is not stopped.\n    */\n    modifier onlyInEmergency() {\n        require(stopped, \"Contract is not currently stopped.\");\n        _;\n    }\n\n\tfunction registerProductSubmission(string memory ProductHash)\n    stopInEmergency public view returns(uint){\n        require(this.checkProductSubmission(ProductHash) == false, \"Error: Product already uploaded.\");\n        uint256 Blocknumber = block.number;\n        uint256 IsSet = 1;\n\t}\n\n\tfunction checkProductSubmission(string memory hash) \n\tpublic stopInEmergency view returns (bool) {\n        // check whether the hash is among the list of known hashes\n        uint onChainIsSet = productsMap[hash].isSet;\n        if (onChainIsSet > 0) {\n            // if yes, return true\n            return true;\n          }\n        // otherwise return false\n        return false;\n    }\n\n    /**\n     * @dev Confirm whether the contract is stopped or not.\n     */\n    function checkContractIsRunning() public view returns (bool) {\n        return stopped;\n    }\n\n    function destroy() public onlyOwner onlyInEmergency {\n        // cast owner which is address to address payable\n        selfdestruct(contractOwner);\n    }\n\n    function setOrderCompletion(bool _orderCompletion) public\n        onSellerTrue\n        onBuyerTrue\n        onlyOnOrderDetails\n        onBoolNull(orderCompletion){\n        orderCompletion = _orderCompletion;\n    }\n\n    function setBuyer(address _buyer) public\n        onUserNull(buyer)\n        checkUser(_buyer){\n        buyer = _buyer;\n    }\n\n    function getBuyer() public view onlyOnSetAddress(buyer) returns (address) {\n        return buyer;\n    }\n\n    function getSeller() public view\n        onlyOnSetAddress(seller)\n        returns (address) {\n            return seller;\n    }\n\n    function getSuppliers() public view\n        onlyOnSuppliers\n        onBuyerTrue\n        onSellerTrue\n        returns (address[] memory){\n            return suppliers;\n    }\n\n    function getDeliveryDate() public view\n        onlyOnString(deliveryDate)\n        returns (bytes32) {\n            return deliveryDate;\n    }\n\n    function getPaymentDate() public view\n        onlyOnString(paymentDate)\n        returns (bytes32) {\n            return paymentDate;\n    }\n\n    function getOrderAmt() public view returns (uint256) {\n        return orderAmount;\n    }\n    modifier onlyOnOrderDetails() {\n        require(orderDetails.length != 0, \"Order Details not set\");\n        _;\n    }\n    function getOrderDetails() public view\n        onlyOnOrderDetails\n        returns (bytes32[50] memory){\n        return orderDetails;\n    }\n\n    function getApprovalSeller() public view returns (bool) {\n        return approvalSeller;\n    }\n\n    function getBuyerApproval() public view returns (bool) {\n        return approvalBuyer;\n    }\n\n    function setSeller(address _seller) public\n        onUserNull(seller)\n        checkUser(_seller){\n            seller = _seller;\n    }\n\n    function setApprovalSeller(bool _approvalSeller) public\n        onlyOnString(deliveryDate)\n        onlyOnString(paymentDate)\n        onlyOnOrderDetails\n        onBoolNull(approvalSeller)\n        onlyOnNum(orderAmount){\n            approvalSeller = _approvalSeller;\n    }\n\n    function setApprovalBuyer(bool _approvalBuyer) public\n        onSellerTrue\n        onBoolNull(approvalBuyer){\n            approvalBuyer = _approvalBuyer;\n    }\n}",
  "sourcePath": "/home/shak/Desktop/stupid/smartcontracts/contracts/Product.sol",
  "compiler": {
    "name": "solc",
    "version": "0.6.0+commit.26b70077.Emscripten.clang"
  },
  "schemaVersion": "3.3.2",
  "updatedAt": "2021-01-07T09:59:46.312Z",
  "devdoc": {
    "methods": {
      "checkContractIsRunning()": {
        "details": "Confirm whether the contract is stopped or not."
      },
      "owner()": {
        "details": "Returns the address of the current owner."
      },
      "renounceOwnership()": {
        "details": "Leaves the contract without owner. It will not be possible to call `onlyOwner` functions anymore. Can only be called by the current owner.     * NOTE: Renouncing ownership will leave the contract without an owner, thereby removing any functionality that is only available to the owner."
      },
      "transferOwnership(address)": {
        "details": "Transfers ownership of the contract to a new account (`newOwner`). Can only be called by the current owner."
      }
    }
  },
  "userdoc": {
    "methods": {}
  }
}