{
  "contractName": "Product",
  "abi": [
    {
      "inputs": [],
      "stateMutability": "nonpayable",
      "type": "constructor"
    },
    {
      "anonymous": false,
      "inputs": [
        {
          "indexed": true,
          "internalType": "address",
          "name": "previousOwner",
          "type": "address"
        },
        {
          "indexed": true,
          "internalType": "address",
          "name": "newOwner",
          "type": "address"
        }
      ],
      "name": "OwnershipTransferred",
      "type": "event"
    },
    {
      "anonymous": false,
      "inputs": [
        {
          "indexed": true,
          "internalType": "uint256",
          "name": "_productSubmissionId",
          "type": "uint256"
        }
      ],
      "name": "registeredProductEvent",
      "type": "event"
    },
    {
      "inputs": [],
      "name": "owner",
      "outputs": [
        {
          "internalType": "address",
          "name": "",
          "type": "address"
        }
      ],
      "stateMutability": "view",
      "type": "function"
    },
    {
      "inputs": [
        {
          "internalType": "uint256",
          "name": "",
          "type": "uint256"
        }
      ],
      "name": "productHashes",
      "outputs": [
        {
          "internalType": "string",
          "name": "",
          "type": "string"
        }
      ],
      "stateMutability": "view",
      "type": "function"
    },
    {
      "inputs": [
        {
          "internalType": "string",
          "name": "",
          "type": "string"
        }
      ],
      "name": "productsAddressMap",
      "outputs": [
        {
          "internalType": "address",
          "name": "",
          "type": "address"
        }
      ],
      "stateMutability": "view",
      "type": "function"
    },
    {
      "inputs": [
        {
          "internalType": "string",
          "name": "",
          "type": "string"
        }
      ],
      "name": "productsMap",
      "outputs": [
        {
          "internalType": "string",
          "name": "ProductHash",
          "type": "string"
        },
        {
          "internalType": "string",
          "name": "ProductInfo",
          "type": "string"
        },
        {
          "internalType": "string",
          "name": "SupplierDetails",
          "type": "string"
        },
        {
          "internalType": "string",
          "name": "SubmissionDate",
          "type": "string"
        },
        {
          "internalType": "uint256",
          "name": "BlockNumber",
          "type": "uint256"
        },
        {
          "internalType": "uint256",
          "name": "isSet",
          "type": "uint256"
        }
      ],
      "stateMutability": "view",
      "type": "function"
    },
    {
      "inputs": [],
      "name": "renounceOwnership",
      "outputs": [],
      "stateMutability": "nonpayable",
      "type": "function"
    },
    {
      "inputs": [
        {
          "internalType": "address",
          "name": "newOwner",
          "type": "address"
        }
      ],
      "name": "transferOwnership",
      "outputs": [],
      "stateMutability": "nonpayable",
      "type": "function"
    },
    {
      "inputs": [
        {
          "internalType": "uint256",
          "name": "_orderAmt",
          "type": "uint256"
        }
      ],
      "name": "setOrderAmt",
      "outputs": [],
      "stateMutability": "nonpayable",
      "type": "function"
    },
    {
      "inputs": [
        {
          "internalType": "bytes32[50]",
          "name": "_msg",
          "type": "bytes32[50]"
        }
      ],
      "name": "setOrderDetails",
      "outputs": [],
      "stateMutability": "nonpayable",
      "type": "function"
    },
    {
      "inputs": [],
      "name": "toggleContractActive",
      "outputs": [
        {
          "internalType": "bool",
          "name": "",
          "type": "bool"
        }
      ],
      "stateMutability": "nonpayable",
      "type": "function"
    },
    {
      "inputs": [
        {
          "internalType": "string",
          "name": "ProductHash",
          "type": "string"
        }
      ],
      "name": "registerProductSubmission",
      "outputs": [
        {
          "internalType": "uint256",
          "name": "",
          "type": "uint256"
        }
      ],
      "stateMutability": "view",
      "type": "function"
    },
    {
      "inputs": [
        {
          "internalType": "string",
          "name": "hash",
          "type": "string"
        }
      ],
      "name": "checkProductSubmission",
      "outputs": [
        {
          "internalType": "bool",
          "name": "",
          "type": "bool"
        }
      ],
      "stateMutability": "view",
      "type": "function"
    },
    {
      "inputs": [],
      "name": "checkContractIsRunning",
      "outputs": [
        {
          "internalType": "bool",
          "name": "",
          "type": "bool"
        }
      ],
      "stateMutability": "view",
      "type": "function"
    },
    {
      "inputs": [],
      "name": "destroy",
      "outputs": [],
      "stateMutability": "nonpayable",
      "type": "function"
    },
    {
      "inputs": [
        {
          "internalType": "bool",
          "name": "_orderCompletion",
          "type": "bool"
        }
      ],
      "name": "setOrderCompletion",
      "outputs": [],
      "stateMutability": "nonpayable",
      "type": "function"
    },
    {
      "inputs": [
        {
          "internalType": "address",
          "name": "_buyer",
          "type": "address"
        }
      ],
      "name": "setBuyer",
      "outputs": [],
      "stateMutability": "nonpayable",
      "type": "function"
    },
    {
      "inputs": [],
      "name": "getBuyer",
      "outputs": [
        {
          "internalType": "address",
          "name": "",
          "type": "address"
        }
      ],
      "stateMutability": "view",
      "type": "function"
    },
    {
      "inputs": [],
      "name": "getSeller",
      "outputs": [
        {
          "internalType": "address",
          "name": "",
          "type": "address"
        }
      ],
      "stateMutability": "view",
      "type": "function"
    },
    {
      "inputs": [],
      "name": "getSuppliers",
      "outputs": [
        {
          "internalType": "address[]",
          "name": "",
          "type": "address[]"
        }
      ],
      "stateMutability": "view",
      "type": "function"
    },
    {
      "inputs": [],
      "name": "getDeliveryDate",
      "outputs": [
        {
          "internalType": "bytes32",
          "name": "",
          "type": "bytes32"
        }
      ],
      "stateMutability": "view",
      "type": "function"
    },
    {
      "inputs": [],
      "name": "getPaymentDate",
      "outputs": [
        {
          "internalType": "bytes32",
          "name": "",
          "type": "bytes32"
        }
      ],
      "stateMutability": "view",
      "type": "function"
    },
    {
      "inputs": [],
      "name": "getOrderAmt",
      "outputs": [
        {
          "internalType": "uint256",
          "name": "",
          "type": "uint256"
        }
      ],
      "stateMutability": "view",
      "type": "function"
    },
    {
      "inputs": [],
      "name": "getOrderDetails",
      "outputs": [
        {
          "internalType": "bytes32[50]",
          "name": "",
          "type": "bytes32[50]"
        }
      ],
      "stateMutability": "view",
      "type": "function"
    },
    {
      "inputs": [],
      "name": "getApprovalSeller",
      "outputs": [
        {
          "internalType": "bool",
          "name": "",
          "type": "bool"
        }
      ],
      "stateMutability": "view",
      "type": "function"
    },
    {
      "inputs": [],
      "name": "getBuyerApproval",
      "outputs": [
        {
          "internalType": "bool",
          "name": "",
          "type": "bool"
        }
      ],
      "stateMutability": "view",
      "type": "function"
    },
    {
      "inputs": [
        {
          "internalType": "address",
          "name": "_seller",
          "type": "address"
        }
      ],
      "name": "setSeller",
      "outputs": [],
      "stateMutability": "nonpayable",
      "type": "function"
    },
    {
      "inputs": [
        {
          "internalType": "bool",
          "name": "_approvalSeller",
          "type": "bool"
        }
      ],
      "name": "setApprovalSeller",
      "outputs": [],
      "stateMutability": "nonpayable",
      "type": "function"
    },
    {
      "inputs": [
        {
          "internalType": "bool",
          "name": "_approvalBuyer",
          "type": "bool"
        }
      ],
      "name": "setApprovalBuyer",
      "outputs": [],
      "stateMutability": "nonpayable",
      "type": "function"
    }
  ],
  "bytecode": "0x608060405234801561001057600080fd5b50600061002161010560201b60201c565b9050806000806101000a81548173ffffffffffffffffffffffffffffffffffffffff021916908373ffffffffffffffffffffffffffffffffffffffff1602179055508073ffffffffffffffffffffffffffffffffffffffff16600073ffffffffffffffffffffffffffffffffffffffff167f8be0079c531659141344cd1fd0a4f28419497f9722a3daafe3b4186f6b6457e060405160405180910390a35033600160006101000a81548173ffffffffffffffffffffffffffffffffffffffff021916908373ffffffffffffffffffffffffffffffffffffffff16021790555061010d565b600033905090565b612b51806200011d6000396000f3fe608060405234801561001057600080fd5b50600436106101a95760003560e01c806395f2d584116100f9578063b4233e9f11610097578063e99d286611610071578063e99d28661461082d578063f2fde38b14610871578063f58e2eab146108b5578063f63f95641461095c576101a9565b8063b4233e9f1461077f578063dbd0e1b6146107c5578063dfab317a1461080f576101a9565b8063a62a4c85116100d3578063a62a4c851461063c578063a81fe6ba1461065a578063ad7cf4301461067c578063b07108411461074f576101a9565b806395f2d5841461042e5780639b3f5e1c146104fd578063a3f09ad6146105f8576101a9565b806347c9563411610166578063715018a611610140578063715018a6146103a057806383197ef0146103aa5780638da5cb5b146103b4578063900089ec146103fe576101a9565b806347c95634146102c1578063603daf9a146103285780637011350114610372576101a9565b806303126c9a146101ae5780631385d24c146101de5780631ac84b22146102005780632e19ce5b146102225780633fad16a6146102405780634351683214610262575b600080fd5b6101dc600480360360208110156101c457600080fd5b81019080803515159060200190929190505050610be2565b005b6101e6610e7b565b604051808215151515815260200191505060405180910390f35b610208610f85565b604051808215151515815260200191505060405180910390f35b61022a610f9c565b6040518082815260200191505060405180910390f35b610248611025565b604051808215151515815260200191505060405180910390f35b61026a61103c565b6040518080602001828103825283818151815260200191508051906020019060200280838360005b838110156102ad578082015181840152602081019050610292565b505050509050019250505060405180910390f35b61032660048036036106408110156102d857600080fd5b810190808061064001906032806020026040519081016040528092919082603260200280828437600081840152601f19601f8201169050808301925050505050509192919290505050611258565b005b61033061126d565b604051808273ffffffffffffffffffffffffffffffffffffffff1673ffffffffffffffffffffffffffffffffffffffff16815260200191505060405180910390f35b61039e6004803603602081101561038857600080fd5b810190808035906020019092919050505061135e565b005b6103a86113e2565b005b6103b261156a565b005b6103bc6116d3565b604051808273ffffffffffffffffffffffffffffffffffffffff1673ffffffffffffffffffffffffffffffffffffffff16815260200191505060405180910390f35b61042c6004803603602081101561041457600080fd5b810190808035151590602001909291905050506116fc565b005b6104e76004803603602081101561044457600080fd5b810190808035906020019064010000000081111561046157600080fd5b82018360208201111561047357600080fd5b8035906020019184600183028401116401000000008311171561049557600080fd5b91908080601f016020809104026020016040519081016040528093929190818152602001838380828437600081840152601f19601f82011690508083019250505050505050919291929050505061182d565b6040518082815260200191505060405180910390f35b6105b66004803603602081101561051357600080fd5b810190808035906020019064010000000081111561053057600080fd5b82018360208201111561054257600080fd5b8035906020019184600183028401116401000000008311171561056457600080fd5b91908080601f016020809104026020016040519081016040528093929190818152602001838380828437600081840152601f19601f820116905080830192505050505050509192919290505050611a2e565b604051808273ffffffffffffffffffffffffffffffffffffffff1673ffffffffffffffffffffffffffffffffffffffff16815260200191505060405180910390f35b61063a6004803603602081101561060e57600080fd5b81019080803573ffffffffffffffffffffffffffffffffffffffff169060200190929190505050611a77565b005b610644611ccf565b6040518082815260200191505060405180910390f35b610662611cd9565b604051808215151515815260200191505060405180910390f35b6107356004803603602081101561069257600080fd5b81019080803590602001906401000000008111156106af57600080fd5b8201836020820111156106c157600080fd5b803590602001918460018302840111640100000000831117156106e357600080fd5b91908080601f016020809104026020016040519081016040528093929190818152602001838380828437600081840152601f19601f820116905080830192505050505050509192919290505050611cf0565b604051808215151515815260200191505060405180910390f35b61077d6004803603602081101561076557600080fd5b81019080803515159060200190929190505050611e04565b005b610787612036565b6040518082603260200280838360005b838110156107b2578082015181840152602081019050610797565b5050505090500191505060405180910390f35b6107cd6120f9565b604051808273ffffffffffffffffffffffffffffffffffffffff1673ffffffffffffffffffffffffffffffffffffffff16815260200191505060405180910390f35b6108176121ea565b6040518082815260200191505060405180910390f35b61086f6004803603602081101561084357600080fd5b81019080803573ffffffffffffffffffffffffffffffffffffffff169060200190929190505050612273565b005b6108b36004803603602081101561088757600080fd5b81019080803573ffffffffffffffffffffffffffffffffffffffff1690602001909291905050506124cb565b005b6108e1600480360360208110156108cb57600080fd5b81019080803590602001909291905050506126d8565b6040518080602001828103825283818151815260200191508051906020019080838360005b83811015610921578082015181840152602081019050610906565b50505050905090810190601f16801561094e5780820380516001836020036101000a031916815260200191505b509250505060405180910390f35b610a156004803603602081101561097257600080fd5b810190808035906020019064010000000081111561098f57600080fd5b8201836020820111156109a157600080fd5b803590602001918460018302840111640100000000831117156109c357600080fd5b91908080601f016020809104026020016040519081016040528093929190818152602001838380828437600081840152601f19601f820116905080830192505050505050509192919290505050612791565b604051808060200180602001806020018060200187815260200186815260200185810385528b818151815260200191508051906020019080838360005b83811015610a6d578082015181840152602081019050610a52565b50505050905090810190601f168015610a9a5780820380516001836020036101000a031916815260200191505b5085810384528a818151815260200191508051906020019080838360005b83811015610ad3578082015181840152602081019050610ab8565b50505050905090810190601f168015610b005780820380516001836020036101000a031916815260200191505b50858103835289818151815260200191508051906020019080838360005b83811015610b39578082015181840152602081019050610b1e565b50505050905090810190601f168015610b665780820380516001836020036101000a031916815260200191505b50858103825288818151815260200191508051906020019080838360005b83811015610b9f578082015181840152602081019050610b84565b50505050905090810190601f168015610bcc5780820380516001836020036101000a031916815260200191505b509a505050505050505050505060405180910390f35b6006546000602060ff161415610c60576040517f08c379a00000000000000000000000000000000000000000000000000000000081526004018080602001828103825260168152602001807f546865726520617265206e6f20737570706c696572730000000000000000000081525060200191505060405180910390fd5b6007546000602060ff161415610cde576040517f08c379a00000000000000000000000000000000000000000000000000000000081526004018080602001828103825260168152602001807f546865726520617265206e6f20737570706c696572730000000000000000000081525060200191505060405180910390fd5b600060321415610d56576040517f08c379a00000000000000000000000000000000000000000000000000000000081526004018080602001828103825260158152602001807f4f726465722044657461696c73206e6f7420736574000000000000000000000081525060200191505060405180910390fd5b603b60009054906101000a900460ff166000151581151514610de0576040517f08c379a00000000000000000000000000000000000000000000000000000000081526004018080602001828103825260118152602001807f56616c756520616c72656164792073657400000000000000000000000000000081525060200191505060405180910390fd5b6008546000811415610e5a576040517f08c379a000000000000000000000000000000000000000000000000000000000815260040180806020018281038252600d8152602001807f56616c7565206e6f74207365740000000000000000000000000000000000000081525060200191505060405180910390fd5b84603b60006101000a81548160ff0219169083151502179055505050505050565b6000610e85612a43565b73ffffffffffffffffffffffffffffffffffffffff166000809054906101000a900473ffffffffffffffffffffffffffffffffffffffff1673ffffffffffffffffffffffffffffffffffffffff1614610f46576040517f08c379a00000000000000000000000000000000000000000000000000000000081526004018080602001828103825260208152602001807f4f776e61626c653a2063616c6c6572206973206e6f7420746865206f776e657281525060200191505060405180910390fd5b600160149054906101000a900460ff1615600160146101000a81548160ff021916908315150217905550600160149054906101000a900460ff16905090565b6000603b60009054906101000a900460ff16905090565b60006007546000602060ff16141561101c576040517f08c379a00000000000000000000000000000000000000000000000000000000081526004018080602001828103825260168152602001807f546865726520617265206e6f20737570706c696572730000000000000000000081525060200191505060405180910390fd5b60075491505090565b6000603b60019054906101000a900460ff16905090565b60606000603c8054905014156110ba576040517f08c379a00000000000000000000000000000000000000000000000000000000081526004018080602001828103825260168152602001807f546865726520617265206e6f20737570706c696572730000000000000000000081525060200191505060405180910390fd5b60011515603b60009054906101000a900460ff16151514611143576040517f08c379a00000000000000000000000000000000000000000000000000000000081526004018080602001828103825260148152602001807f53656c6c6572206861736e27742061677265656400000000000000000000000081525060200191505060405180910390fd5b60011515603b60009054906101000a900460ff161515146111cc576040517f08c379a00000000000000000000000000000000000000000000000000000000081526004018080602001828103825260148152602001807f53656c6c6572206861736e27742061677265656400000000000000000000000081525060200191505060405180910390fd5b603c80548060200260200160405190810160405280929190818152602001828054801561124e57602002820191906000526020600020905b8160009054906101000a900473ffffffffffffffffffffffffffffffffffffffff1673ffffffffffffffffffffffffffffffffffffffff1681526020019060010190808311611204575b5050505050905090565b806009906032611269929190612a4b565b5050565b6000600460009054906101000a900473ffffffffffffffffffffffffffffffffffffffff16600073ffffffffffffffffffffffffffffffffffffffff168173ffffffffffffffffffffffffffffffffffffffff161415611335576040517f08c379a00000000000000000000000000000000000000000000000000000000081526004018080602001828103825260118152602001807f56616c7565206e6f74207965742073657400000000000000000000000000000081525060200191505060405180910390fd5b600460009054906101000a900473ffffffffffffffffffffffffffffffffffffffff1691505090565b600854600081146113d7576040517f08c379a000000000000000000000000000000000000000000000000000000000815260040180806020018281038252601a8152602001807f56616c75652068617320616c7265616479206265656e2073657400000000000081525060200191505060405180910390fd5b816008819055505050565b6113ea612a43565b73ffffffffffffffffffffffffffffffffffffffff166000809054906101000a900473ffffffffffffffffffffffffffffffffffffffff1673ffffffffffffffffffffffffffffffffffffffff16146114ab576040517f08c379a00000000000000000000000000000000000000000000000000000000081526004018080602001828103825260208152602001807f4f776e61626c653a2063616c6c6572206973206e6f7420746865206f776e657281525060200191505060405180910390fd5b600073ffffffffffffffffffffffffffffffffffffffff166000809054906101000a900473ffffffffffffffffffffffffffffffffffffffff1673ffffffffffffffffffffffffffffffffffffffff167f8be0079c531659141344cd1fd0a4f28419497f9722a3daafe3b4186f6b6457e060405160405180910390a360008060006101000a81548173ffffffffffffffffffffffffffffffffffffffff021916908373ffffffffffffffffffffffffffffffffffffffff160217905550565b611572612a43565b73ffffffffffffffffffffffffffffffffffffffff166000809054906101000a900473ffffffffffffffffffffffffffffffffffffffff1673ffffffffffffffffffffffffffffffffffffffff1614611633576040517f08c379a00000000000000000000000000000000000000000000000000000000081526004018080602001828103825260208152602001807f4f776e61626c653a2063616c6c6572206973206e6f7420746865206f776e657281525060200191505060405180910390fd5b600160149054906101000a900460ff16611698576040517f08c379a0000000000000000000000000000000000000000000000000000000008152600401808060200182810382526022815260200180612afa6022913960400191505060405180910390fd5b600160009054906101000a900473ffffffffffffffffffffffffffffffffffffffff1673ffffffffffffffffffffffffffffffffffffffff16ff5b60008060009054906101000a900473ffffffffffffffffffffffffffffffffffffffff16905090565b60011515603b60009054906101000a900460ff16151514611785576040517f08c379a00000000000000000000000000000000000000000000000000000000081526004018080602001828103825260148152602001807f53656c6c6572206861736e27742061677265656400000000000000000000000081525060200191505060405180910390fd5b603b60019054906101000a900460ff16600015158115151461180f576040517f08c379a00000000000000000000000000000000000000000000000000000000081526004018080602001828103825260118152602001807f56616c756520616c72656164792073657400000000000000000000000000000081525060200191505060405180910390fd5b81603b60016101000a81548160ff0219169083151502179055505050565b6000600160149054906101000a900460ff16156118b2576040517f08c379a000000000000000000000000000000000000000000000000000000000815260040180806020018281038252601e8152602001807f436f6e74726163742069732063757272656e746c792073746f707065642e000081525060200191505060405180910390fd5b600015153073ffffffffffffffffffffffffffffffffffffffff1663ad7cf430846040518263ffffffff1660e01b81526004018080602001828103825283818151815260200191508051906020019080838360005b83811015611922578082015181840152602081019050611907565b50505050905090810190601f16801561194f5780820380516001836020036101000a031916815260200191505b509250505060206040518083038186803b15801561196c57600080fd5b505afa158015611980573d6000803e3d6000fd5b505050506040513d602081101561199657600080fd5b8101908080519060200190929190505050151514611a1c576040517f08c379a00000000000000000000000000000000000000000000000000000000081526004018080602001828103825260208152602001807f4572726f723a2050726f6475637420616c72656164792075706c6f616465642e81525060200191505060405180910390fd5b60004390506000600190505050919050565b603e818051602081018201805184825260208301602085012081835280955050505050506000915054906101000a900473ffffffffffffffffffffffffffffffffffffffff1681565b600460009054906101000a900473ffffffffffffffffffffffffffffffffffffffff16600073ffffffffffffffffffffffffffffffffffffffff168173ffffffffffffffffffffffffffffffffffffffff1614611b3c576040517f08c379a00000000000000000000000000000000000000000000000000000000081526004018080602001828103825260118152602001807f56616c756520616c72656164792073657400000000000000000000000000000081525060200191505060405180910390fd5b81600260009054906101000a900473ffffffffffffffffffffffffffffffffffffffff1673ffffffffffffffffffffffffffffffffffffffff1663c3c5a547826040518263ffffffff1660e01b8152600401808273ffffffffffffffffffffffffffffffffffffffff1673ffffffffffffffffffffffffffffffffffffffff16815260200191505060206040518083038186803b158015611bdc57600080fd5b505afa158015611bf0573d6000803e3d6000fd5b505050506040513d6020811015611c0657600080fd5b8101908080519060200190929190505050611c89576040517f08c379a000000000000000000000000000000000000000000000000000000000815260040180806020018281038252600d8152602001807f4163636573732044656e6965640000000000000000000000000000000000000081525060200191505060405180910390fd5b82600460006101000a81548173ffffffffffffffffffffffffffffffffffffffff021916908373ffffffffffffffffffffffffffffffffffffffff160217905550505050565b6000600854905090565b6000600160149054906101000a900460ff16905090565b6000600160149054906101000a900460ff1615611d75576040517f08c379a000000000000000000000000000000000000000000000000000000000815260040180806020018281038252601e8152602001807f436f6e74726163742069732063757272656e746c792073746f707065642e000081525060200191505060405180910390fd5b6000603d836040518082805190602001908083835b60208310611dad5780518252602082019150602081019050602083039250611d8a565b6001836020036101000a03801982511681845116808217855250505050505090500191505090815260200160405180910390206005015490506000811115611df9576001915050611dff565b60009150505b919050565b60011515603b60009054906101000a900460ff16151514611e8d576040517f08c379a00000000000000000000000000000000000000000000000000000000081526004018080602001828103825260148152602001807f53656c6c6572206861736e27742061677265656400000000000000000000000081525060200191505060405180910390fd5b60011515603b60009054906101000a900460ff16151514611f16576040517f08c379a00000000000000000000000000000000000000000000000000000000081526004018080602001828103825260148152602001807f53656c6c6572206861736e27742061677265656400000000000000000000000081525060200191505060405180910390fd5b600060321415611f8e576040517f08c379a00000000000000000000000000000000000000000000000000000000081526004018080602001828103825260158152602001807f4f726465722044657461696c73206e6f7420736574000000000000000000000081525060200191505060405180910390fd5b603b60029054906101000a900460ff166000151581151514612018576040517f08c379a00000000000000000000000000000000000000000000000000000000081526004018080602001828103825260118152602001807f56616c756520616c72656164792073657400000000000000000000000000000081525060200191505060405180910390fd5b81603b60026101000a81548160ff0219169083151502179055505050565b61203e612a8b565b6000603214156120b6576040517f08c379a00000000000000000000000000000000000000000000000000000000081526004018080602001828103825260158152602001807f4f726465722044657461696c73206e6f7420736574000000000000000000000081525060200191505060405180910390fd5b60096032806020026040519081016040528092919082603280156120ef576020028201915b8154815260200190600101908083116120db575b5050505050905090565b6000600560009054906101000a900473ffffffffffffffffffffffffffffffffffffffff16600073ffffffffffffffffffffffffffffffffffffffff168173ffffffffffffffffffffffffffffffffffffffff1614156121c1576040517f08c379a00000000000000000000000000000000000000000000000000000000081526004018080602001828103825260118152602001807f56616c7565206e6f74207965742073657400000000000000000000000000000081525060200191505060405180910390fd5b600560009054906101000a900473ffffffffffffffffffffffffffffffffffffffff1691505090565b60006006546000602060ff16141561226a576040517f08c379a00000000000000000000000000000000000000000000000000000000081526004018080602001828103825260168152602001807f546865726520617265206e6f20737570706c696572730000000000000000000081525060200191505060405180910390fd5b60065491505090565b600560009054906101000a900473ffffffffffffffffffffffffffffffffffffffff16600073ffffffffffffffffffffffffffffffffffffffff168173ffffffffffffffffffffffffffffffffffffffff1614612338576040517f08c379a00000000000000000000000000000000000000000000000000000000081526004018080602001828103825260118152602001807f56616c756520616c72656164792073657400000000000000000000000000000081525060200191505060405180910390fd5b81600260009054906101000a900473ffffffffffffffffffffffffffffffffffffffff1673ffffffffffffffffffffffffffffffffffffffff1663c3c5a547826040518263ffffffff1660e01b8152600401808273ffffffffffffffffffffffffffffffffffffffff1673ffffffffffffffffffffffffffffffffffffffff16815260200191505060206040518083038186803b1580156123d857600080fd5b505afa1580156123ec573d6000803e3d6000fd5b505050506040513d602081101561240257600080fd5b8101908080519060200190929190505050612485576040517f08c379a000000000000000000000000000000000000000000000000000000000815260040180806020018281038252600d8152602001807f4163636573732044656e6965640000000000000000000000000000000000000081525060200191505060405180910390fd5b82600560006101000a81548173ffffffffffffffffffffffffffffffffffffffff021916908373ffffffffffffffffffffffffffffffffffffffff160217905550505050565b6124d3612a43565b73ffffffffffffffffffffffffffffffffffffffff166000809054906101000a900473ffffffffffffffffffffffffffffffffffffffff1673ffffffffffffffffffffffffffffffffffffffff1614612594576040517f08c379a00000000000000000000000000000000000000000000000000000000081526004018080602001828103825260208152602001807f4f776e61626c653a2063616c6c6572206973206e6f7420746865206f776e657281525060200191505060405180910390fd5b600073ffffffffffffffffffffffffffffffffffffffff168173ffffffffffffffffffffffffffffffffffffffff16141561261a576040517f08c379a0000000000000000000000000000000000000000000000000000000008152600401808060200182810382526026815260200180612ad46026913960400191505060405180910390fd5b8073ffffffffffffffffffffffffffffffffffffffff166000809054906101000a900473ffffffffffffffffffffffffffffffffffffffff1673ffffffffffffffffffffffffffffffffffffffff167f8be0079c531659141344cd1fd0a4f28419497f9722a3daafe3b4186f6b6457e060405160405180910390a3806000806101000a81548173ffffffffffffffffffffffffffffffffffffffff021916908373ffffffffffffffffffffffffffffffffffffffff16021790555050565b603f81815481106126e557fe5b906000526020600020016000915090508054600181600116156101000203166002900480601f0160208091040260200160405190810160405280929190818152602001828054600181600116156101000203166002900480156127895780601f1061275e57610100808354040283529160200191612789565b820191906000526020600020905b81548152906001019060200180831161276c57829003601f168201915b505050505081565b603d81805160208101820180518482526020830160208501208183528095505050505050600091509050806000018054600181600116156101000203166002900480601f0160208091040260200160405190810160405280929190818152602001828054600181600116156101000203166002900480156128535780601f1061282857610100808354040283529160200191612853565b820191906000526020600020905b81548152906001019060200180831161283657829003601f168201915b505050505090806001018054600181600116156101000203166002900480601f0160208091040260200160405190810160405280929190818152602001828054600181600116156101000203166002900480156128f15780601f106128c6576101008083540402835291602001916128f1565b820191906000526020600020905b8154815290600101906020018083116128d457829003601f168201915b505050505090806002018054600181600116156101000203166002900480601f01602080910402602001604051908101604052809291908181526020018280546001816001161561010002031660029004801561298f5780601f106129645761010080835404028352916020019161298f565b820191906000526020600020905b81548152906001019060200180831161297257829003601f168201915b505050505090806003018054600181600116156101000203166002900480601f016020809104026020016040519081016040528092919081815260200182805460018160011615610100020316600290048015612a2d5780601f10612a0257610100808354040283529160200191612a2d565b820191906000526020600020905b815481529060010190602001808311612a1057829003601f168201915b5050505050908060040154908060050154905086565b600033905090565b8260328101928215612a7a579160200282015b82811115612a79578251825591602001919060010190612a5e565b5b509050612a879190612aae565b5090565b604051806106400160405280603290602082028038833980820191505090505090565b612ad091905b80821115612acc576000816000905550600101612ab4565b5090565b9056fe4f776e61626c653a206e6577206f776e657220697320746865207a65726f2061646472657373436f6e7472616374206973206e6f742063757272656e746c792073746f707065642ea2646970667358221220f98846ea3e1b266479732b01f9d11b538493ae45ca376e815d65d13a4dac412564736f6c63430006000033",
  "source": "// SPDX-License-Identifier: GPL-3.0\npragma solidity ^0.6.0;\n\nimport \"@openzeppelin/contracts/math/SafeMath.sol\";\nimport \"@openzeppelin/contracts/access/Ownable.sol\";\nimport \"./Registrations.sol\";\nimport \"./Token/ERC20.sol\";\n\ncontract Product is Context, Ownable{\n\tusing SafeMath for uint; \n\taddress payable contractOwner;\n    bool private stopped; // for use in circuit breaker\n\n    Registrations private registrations;\n    \n    //identifiers  \n    bytes32 OrderId;\n    address buyer;\n    address seller; //supplier(farmer)\n    bytes32 deliveryDate;\n    bytes32 paymentDate;\n    uint256 orderAmount;\n    bytes32[50] orderDetails;\n    bool approvalSeller;\n\n    bool approvalBuyer;\n    bool orderCompletion;   \n\n    address[] suppliers; //sellers (farmers)\n\n    /**\n    * a struct acts as a loose bag of variables\n    */\n\tstruct ProductSubmission{\n\t\tstring ProductHash;\n\t\tstring ProductInfo;\n\t\tstring SupplierDetails;\n\t\tstring SubmissionDate;\n\t\tuint256 BlockNumber;\n\t\tuint isSet; \n\t}\n\t\n\tmodifier checkUser(address _address) {\n        require(registrations.isRegistered(_address), \"Access Denied\");\n        _;\n    }\n    modifier onlyOnNum(uint256 num) {\n        require(num != 0, \"Value not set\");\n        _;\n    }\n\n    modifier onlyOnSuppliers {\n        require(suppliers.length != 0, \"There are no suppliers\");\n        _;\n    }\n    modifier onSellerTrue() {\n        require(approvalSeller == true, \"Seller hasn't agreed\");\n\n        _;\n    }\n    modifier onBuyerTrue() {\n        require(approvalSeller == true, \"Seller hasn't agreed\");\n\n        _;\n    }\n    modifier onlyOnSetAddress(address check) {\n        require(check != address(0), \"Value not yet set\");\n        _;\n    }\n\n    modifier onlyOnString(bytes32 str) {\n        require(str.length != 0, \"There are no suppliers\");\n        _;\n    }\n    modifier onStringNull(bytes32 str) {\n        require(str.length == 0, \"Value has already been set\");\n        _;\n    }\n    modifier onUserNull(address user) {\n        require(user == address(0), \"Value already set\");\n        _;\n    }\n\n    modifier onBoolNull(bool val) {\n        require(val == false, \"Value already set\");\n        _;\n    }\n    modifier onNumNull(uint256 num) {\n        require(num == 0, \"Value has already been set\");\n        _;\n    }\n\n    modifier checkOrderCompletion(bool _orderCompletion) {\n        require(_orderCompletion == true, \"Order has to be completed\");\n        _;\n    }\n    function setOrderAmt(uint256 _orderAmt) public onNumNull(orderAmount) {\n        orderAmount = _orderAmt;\n    }\n    function setOrderDetails(bytes32[50] memory _msg) public {\n        orderDetails = _msg;\n    }\n\n\t/*\n\tstate variable to store a ProductSubmission struct for each possible product hash\n\t */\n\tmapping(string => ProductSubmission) public productsMap;\n\n\t/*\n\ta state variable to store an address corresponding to each product submission\n\t */\n\tmapping(string => address) public productsAddressMap;\n\n\t/*\n\ta dynamically-sized array containing product hashes\n\t */\n\tstring[] public productHashes;\n\n\t/*\n\t@dev fired on submission of a product\n\t */\n\tevent registeredProductEvent(uint indexed _productSubmissionId);\n\n\t/*\n\t@dev Constructor\n\t */\n\tconstructor() public{\n\t\tcontractOwner = msg.sender;\n\t}\n\n\t /*\n        @dev Circuit breaker switch\n    */\n    function toggleContractActive() onlyOwner public returns (bool) {\n        stopped = !stopped;\n        return stopped;\n    }\n\n    /*\n        @dev Circuit breaker modifier. Throws if contract is stopped.\n    */\n    modifier stopInEmergency() {\n        require(!stopped, \"Contract is currently stopped.\");\n        _;\n    }\n\n    /*\n        @dev Circuit breaker modifier. Throws if contract is not stopped.\n    */\n    modifier onlyInEmergency() {\n        require(stopped, \"Contract is not currently stopped.\");\n        _;\n    }\n\n\tfunction registerProductSubmission(\n\t\tstring memory ProductHash\n\t\t) \n\n\t\tstopInEmergency public view returns(uint){\n\n\t\t\trequire(this.checkProductSubmission(ProductHash) == false, \"Error: Product already uploaded.\");\n\n\t        uint256 SubmissionBlocknumber = block.number;\n\t        uint256 IsSet = 1;\n\t\t}\n\n\tfunction checkProductSubmission(string memory hash) \n\tpublic stopInEmergency view returns (bool) {\n        // check whether the hash is among the list of known hashes\n        uint onChainIsSet = productsMap[hash].isSet;\n        if (onChainIsSet > 0) {\n            // if yes, return true\n            return true;\n          }\n        // otherwise return false\n        return false;\n    }\n\n    /**\n     * @dev Confirm whether the contract is stopped or not.\n     */\n    function checkContractIsRunning() public view returns (bool) {\n        return stopped;\n    }\n\n    function destroy() public onlyOwner onlyInEmergency {\n        // cast owner which is address to address payable\n        selfdestruct(contractOwner);\n    }\n\n    function setOrderCompletion(bool _orderCompletion) public\n        onSellerTrue\n        onBuyerTrue\n        onlyOnOrderDetails\n        onBoolNull(orderCompletion){\n        orderCompletion = _orderCompletion;\n    }\n\n    function setBuyer(address _buyer) public\n        onUserNull(buyer)\n        checkUser(_buyer){\n        buyer = _buyer;\n    }\n\n    function getBuyer() public view onlyOnSetAddress(buyer) returns (address) {\n        return buyer;\n    }\n\n    function getSeller() public view\n        onlyOnSetAddress(seller)\n        returns (address) {\n            return seller;\n    }\n\n    function getSuppliers() public view\n        onlyOnSuppliers\n        onBuyerTrue\n        onSellerTrue\n        returns (address[] memory){\n            return suppliers;\n    }\n\n    function getDeliveryDate() public view\n        onlyOnString(deliveryDate)\n        returns (bytes32) {\n            return deliveryDate;\n    }\n\n    function getPaymentDate() public view\n        onlyOnString(paymentDate)\n        returns (bytes32) {\n            return paymentDate;\n    }\n\n    function getOrderAmt() public view returns (uint256) {\n        return orderAmount;\n    }\n    modifier onlyOnOrderDetails() {\n        require(orderDetails.length != 0, \"Order Details not set\");\n        _;\n    }\n    function getOrderDetails() public view\n        onlyOnOrderDetails\n        returns (bytes32[50] memory){\n        return orderDetails;\n    }\n\n    function getApprovalSeller() public view returns (bool) {\n        return approvalSeller;\n    }\n\n    function getBuyerApproval() public view returns (bool) {\n        return approvalBuyer;\n    }\n\n    function setSeller(address _seller) public\n        onUserNull(seller)\n        checkUser(_seller){\n            seller = _seller;\n    }\n\n    function setApprovalSeller(bool _approvalSeller) public\n        onlyOnString(deliveryDate)\n        onlyOnString(paymentDate)\n        onlyOnOrderDetails\n        onBoolNull(approvalSeller)\n        onlyOnNum(orderAmount){\n            approvalSeller = _approvalSeller;\n    }\n\n    function setApprovalBuyer(bool _approvalBuyer) public\n        onSellerTrue\n        onBoolNull(approvalBuyer){\n            approvalBuyer = _approvalBuyer;\n    }\n}",
  "sourcePath": "/home/shak/Desktop/stupid/smartcontracts/contracts/Product.sol",
  "compiler": {
    "name": "solc",
    "version": "0.6.0+commit.26b70077.Emscripten.clang"
  },
  "schemaVersion": "3.3.2",
  "updatedAt": "2020-12-18T18:37:49.190Z",
  "devdoc": {
    "methods": {
      "checkContractIsRunning()": {
        "details": "Confirm whether the contract is stopped or not."
      },
      "owner()": {
        "details": "Returns the address of the current owner."
      },
      "renounceOwnership()": {
        "details": "Leaves the contract without owner. It will not be possible to call `onlyOwner` functions anymore. Can only be called by the current owner.     * NOTE: Renouncing ownership will leave the contract without an owner, thereby removing any functionality that is only available to the owner."
      },
      "transferOwnership(address)": {
        "details": "Transfers ownership of the contract to a new account (`newOwner`). Can only be called by the current owner."
      }
    }
  },
  "userdoc": {
    "methods": {}
  }
}